:100000000C94F6110C9420120C9420120C942012D3
:100010000C9420120C9420120C9420120C94201298
:100020000C9420120C9420120C9420120C94201288
:100030000C9420120C9420120C9420120C94201278
:100040000C9420120C9420120C9420120C94201268
:100050000C9420120C9420120C9420120C9418274B
:100060000C9420120C94E2260C94B8260C942012C6
:100070000C9420120C9420120C9420120C94201238
:100080000C9420120C9420120C9420120C94201228
:100090000C9482260C9458260C9420120C94201256
:1000A0000C9420120C9420120C9420120C94201208
:1000B0000C9420120C9420120C9420120C942012F8
:1000C0000C9420120C9420120C9420120C942012E8
:1000D0000C9420120C9420120C9420120C942012D8
:1000E0000C942012415452415300414A55535441FB
:1000F0005220564F4C554D454E20302D3330005632
:100100004F4C554D454E004F54524F5320414A5588
:1001100053544553004E554D45524F2044452052AF
:100120004F4E4441530052415049444F004D4544C5
:10013000494F004C454E544F0056454C4F4349449F
:100140004144004E4F00534900534F4E49444F53D2
:10015000205049535441004E554D4245524F204482
:100160004520494E5055545300414C4541544F523F
:10017000494F005452414D50410045535045524162
:10018000004755415244414E444F00475541524467
:10019000414E444F204341424C455320454E00447C
:1001A000454D41534941444F20434F52544F00471E
:1001B00055415244415200494E505554203130006F
:1001C000494E505554203900494E5055542038005E
:1001D000494E505554203700494E50555420360052
:1001E000494E505554203500494E50555420340046
:1001F000494E505554203300494E5055542032003A
:10020000494E5055542031004C49535441204755D4
:10021000415244414441004C4953544100534F4CD6
:100220005543494F4E41444F0053494700414341D4
:1002300042415200494E50555420454E43454E448C
:1002400049444F004552524F523A204D41532044A9
:100250004520554E00494E50555420454E43454E7D
:100260004449444F004552524F523A204E494E475E
:10027000554E00317300302E397300302E38730024
:10028000302E377320287265636F6D6D656E646103
:10029000646F2900302E367300302E3573005341C1
:1002A0004C49444120330053414C494441203200E1
:1002B00053414C494441203100445552414349C3C4
:1002C000934E204C494E49410047554152444152BA
:1002D000204E5545564120534F4C5543494F4E00F3
:1002E00050554C5341205349475549454E544500BC
:1002F0004D414E54454E205041534F2031302059EE
:10030000004D414E54454E205041534F2039205905
:10031000004D414E54454E205041534F20382059F6
:10032000004D414E54454E205041534F20372059E7
:10033000004D414E54454E205041534F20362059D8
:10034000004D414E54454E205041534F20352059C9
:10035000004D414E54454E205041534F20342059BA
:10036000004D414E54454E205041534F20332059AB
:10037000004D414E54454E205041534F203220599C
:10038000004D414E54454E205041534F203120598D
:100390000050554544455320534F4C54415200475B
:1003A0005541524441444F21004755415244414E2A
:1003B000444F2045535441444F20454E004552522E
:1003C0004F523A204C412053454355454E434941F5
:1003D000204553004D415300445245545241534F20
:1003E00020454E20534547554E444F5300455343F7
:1003F0004F4745520053414C49444153004F4E2012
:10040000414C20534F4C5543494F4E4152004F46AB
:100410004620414C20534F4C5543494F4E415200CA
:100420005245545241534F2044452053414C494476
:1004300041005449504F2044452053414C494441C8
:1004400000414A55535445532044452050555A5A6B
:100450004C450053494D4F4E00434F4449474F20B0
:100460004D4F525345004341424C45530053454381
:1004700055454E4349410045535441444F0054496A
:10048000504F2044452050555A5A4C45004D454E3A
:100490005500000000000000000000000400000003
:1004A0000000001F0000000000C07F0000000000EE
:1004B000E0FF0000000000F8FF0300000000FEFB6A
:1004C0000F00000080FFE03F000000C07F847F003D
:1004D0000000F01F1FFF010000FCC77FFC070000A9
:1004E000FEE1FFF11F0080FFF8FFC13F00C03FFEAB
:1004F0007F807F00C08FFF1F007E00C0CFFF0F00F6
:100500007C00C0F7FF03007800C0F3FF0000780014
:1005100000F07FC003780020F01FF007780030F073
:1005200007FC07780038F003FE07780038F083FFF7
:1005300007780038F0E3FF07780038F0FBFF037816
:100540000038F0FFFF80790038F0FF3FE079003895
:10055000F0FF0FF0790038F0FF07FC790038F0FF6A
:1005600001FF790038F07FC0FF790038F0FFE1FF2C
:10057000790038E0FFFBFF7D0038E0FFFF7F7C0063
:100580003880FFFF3F7E003800FEFF8F7F0078003D
:10059000F8FFC33F00F801E0FFF11F00F803C07F40
:1005A000FC0700E00F001FFF0100803F00807F007C
:1005B0000000FE00EE3F000000FC01FF0F00000005
:1005C000F0C7FF03000000C0CFFF0000000000875D
:1005D0007F0000000000001F000000000000040079
:1005E000000000000000000000000000000000000B
:1005F000000020002300260029002C002F003200DC
:1006000000010000030106010901FFE0FFD1AFFF77
:1006100032FFD0FFFEFFE0FFD1AEFFD0FFFEFFE0D4
:10062000FFD11002FFFEFFD0FFE0FFC1FFD1AED52A
:1006300080A83FD300408D142002A1C8DA1281CFD8
:10064000D9F1DB402EA4A6AFFFD0FFFE00002100B1
:10065000240027002A002D00300033000101000093
:10066000040107010A0100002200250028002B00D8
:100670002E003100340002010000050108010B01C9
:1006800005050505070508080808020202020A0A0E
:10069000080804040404010101010101010103032C
:1006A000030303030303040707070C0C0C0C0C0CD7
:1006B0000C0C0202020206060606060606060B0BD4
:1006C0000B0B0B0B0B0B0102102020080810204015
:1006D0001020408002010201080402010102040806
:1006E0001020408080402010080402018004020194
:1006F00080402010080402010804020101020408DD
:1007000010204080010204081020408000000A0BE5
:1007100002090C0D0E080703040100000000000090
:1007200000000000000000000000000000000000C9
:100730000000000000000000121110000000000086
:1007400000000000000000000000000000000000A9
:1007500000004D503320506C6179657220776F72C4
:100760006B696E672070726F7065726C7900322EE3
:10077000506C6561736520696E736572742074686E
:100780006520534420636172642100312E506C65F2
:10079000617365207265636865636B2074686520AA
:1007A000636F6E6E656374696F6E2100556E616272
:1007B0006C6520746F20626567696E3A00496E69E6
:1007C0007469616C697A696E67204D503320506C92
:1007D00061796572202E2E2E20284D61792074615A
:1007E0006B6520337E35207365636F6E64732900FB
:1007F0003D3D3D3D3D3D3D3D3D3D3D3D3D3D3D3D29
:100800003D3D20534F4C564544203D3D3D3D3D3DF3
:100810003D3D3D3D3D3D3D3D3D3D3D3D3D00736FDD
:100820006C766564008D047E0477046D046604595B
:100830000453044104320420040E04FD03F503EDC7
:1008400003D803D403BD03A9039F0391038103715C
:10085000036103510341033103210311030103F039
:1008600002E002C902B902B002A7029E02990294F4
:100870000280027B02760273026502550244023452
:10088000022D0229021D02170208020002F801F0DF
:1008900001E801E001D801D001C801C001B701AFF2
:1008A000019F018B0181017A01730169015701499F
:1008B0000146014301390133012D012601150107CC
:1008C00001FF00EA00E40001090600FF0400E9015D
:1008D000C620FFFF06FF05FF0200200214248080CF
:1008E0000080053242A0A001556550F850F8500133
:1008F00056662078E038F020024454902040900260
:10090000455540A040A0F0051222808001263640C7
:100910008080808040012636804040404080032215
:1009200032C0C002334340E04001122280800331D4
:1009300041E00211218002445410204080023444DE
:10094000E0A0A0E002243440C04040023444E02053
:1009500040E0023444E04020E002344480A0E02043
:10096000023444E0C020E0023444E080E0E002349D
:1009700044E0204080023444E0E0A0E0023444E05F
:10098000E020E00213238000800114248000808096
:10099000022333408040023343E000E002233380EF
:1009A0004080022434C0400040024454F0B080F043
:1009B0000244546090F090024454E0F090F002340D
:1009C0004460808060024454E09090E0024454F01F
:1009D000E080F0024454F080E080024454F080B0A3
:1009E000F002445490F090900214248080808002A1
:1009F0003444E02020C002445490E09090023444FB
:100A0000808080E002546488D8A88802445490D042
:100A1000B09002445460909060024454E090E080B2
:100A2000025464F09090E8024454F0F0A090024424
:100A30005470C030E0023444E040404002445490DE
:100A40009090F00244549090906002546488A8A85A
:100A500050023444A04040A002445490F010F002F0
:100A60004454F02040F0012636C080808080C002CF
:100A7000445480402010012636C040404040C0050C
:100A8000324240A0014151F00522328040023343FE
:100A900060A0E002344480C0A0C0022333C080C004
:100AA0000234442060A060023343E0A0C00234441A
:100AB0002040E040013444E0E0206002344480C043
:100AC000A0A0021424800080800125354000404011
:100AD0008002344480A0C0A0021424808080800260
:100AE0005363D0A8A8023343C0A0A0023343E0A0C0
:100AF000E0013444C0A0C08001344460A060200202
:100B00002333C080800233436040C002344440E05D
:100B10004060023343A0A0E0023343A0A040025350
:100B20006388A850023343A040A0013444A0E020D1
:100B3000E0023343C0406001364660408080406040
:100B4000011626808080808080013646C0402020AB
:100B500040C005425250A0024555F0909090F002DE
:100B60000020023545A000A0A0E0023646408000EB
:100B7000E0C0E002364640A00060A0E0023545A09B
:100B80000060A0E002364640200060A0E002364649
:100B900040A04060A0E0012434C080C0C0023646BE
:100BA00040A000E0C0E0023545A000E0C0E0023611
:100BB00046402000E0C0E0023444A000404002353E
:100BC0009540A0004040022535804000404002454D
:100BD00055906090F09002465660906090F09002C0
:100BE00046562040F0E080F002536378B0F802846B
:100BF000941F2E788F02364640A000E0A0E0023518
:100C000045A000E0A0E0023646804000E0A0E002FF
:100C1000364640A000A0A0E0023646402000A0A03A
:100C2000E0013646A000A0E02060024555906090AB
:100C3000906002455590009090F002004002004004
:100C40000200400200400200400236464080006040
:100C5000A0E002253540800080800236462040001A
:100C6000E0A0E0023646204000A0A0E00246465048
:100C7000A000C0A0A002465650A090D0B09002158F
:100C8000258080008080013646E080E0E020E0069C
:100C90004151900177977C82BAA2BA827C0200907F
:100CA00002334360C060033242E0200200900177CB
:100CB000977C82BAB2AA827C064151F0043343E0A9
:100CC000A0E002349440E040E0043343C0406004BC
:100CD0002333C040C00522324080013494A0A0E0FC
:100CE000800165757CF47414141311318002009036
:100CF000042333C04040043343E0A0E0023343C048
:100D000060C0017686C44850284E84017686C44867
:100D1000502C4486017696C448D0284E8402004068
:100D200002465640206090F0900246562040609067
:100D3000F09002465660906090F09002465650A0A7
:100D40006090F090024555906090F0900246566099
:100D5000006090F0900284941F2E788F014555F02A
:100D600080F020600246564020F0E080F0024656B7
:100D70002040F0E080F00246566090F0E080F00203
:100D800046569000F0E080F0022636804080808059
:100D90008002263640804040404002364640A04017
:100DA000404040023545A04040404002546470E855
:100DB000487002465650A00090D0B00246564020DF
:100DC00060909060024656204060909060024656C7
:100DD00060906090906002465650A06090906002D3
:100DE00045559060909060023343A040A001667624
:100DF0000438586870800246564020909090F00267
:100E000046562040909090F0024656609000909098
:100E1000F002455590009090F0024656204090F028
:100E200010F001465680E09090E080013545C0C04A
:100E3000A0C08002364640200060A0E00236464056
:100E4000800060A0E002364640A00060A0E00246BC
:100E50004650A00060A0E0023545A00060A0E0027E
:100E6000364640A04060A0E002536378B0F8012409
:100E700034C080C0C0023646402000E0A0C0023628
:100E800046408000E0A0C002364640A000E0A0C07E
:100E9000023545A000E0A0C002253580400040405A
:100EA000022535408000808002354540A00040404A
:100EB000023444A0004040024656606010709060CA
:100EC00002464650A000C0A0A0023646402000E0E6
:100ED000A0E0023646408000E0A0E002364640A096
:100EE00000E0A0E002464650A000E0A0E002354548
:100EF000A000E0A0E00235454000E000400155655B
:100F00000870507080023646402000A0A0E00236F3
:100F100046408000A0A0E002364640A000A0A0E02D
:100F2000023545A000A0A0E0013747408000A0E0C6
:100F3000206001354580C0A0C080013646A000A0D9
:100F4000E0206001040600FF05010301FA20FFFF15
:100F500005FF05FF070040121545808080008005D1
:100F60003242A0A0024545A0F0A0F0A001364640C4
:100F7000E0C020E040023545802040802002454509
:100F800040A040A05015124280801126464080802B
:100F9000808040012646804040404080023545A088
:100FA00040E040A00235454040E040400122424040
:100FB00080043141E01211418002354520204080FB
:100FC0008002354540A0E0A04002354540C0404089
:100FD000E002354540A02040E0023545E0204020B9
:100FE000C0023545A0A0E02020023545E080C020A9
:100FF000C00235456080C0A040023545E0204080F9
:101000008002354560A040A0C002354540A0602068
:10101000C01214448000008001254540000040803B
:101020000235452040804020033343E000E0023594
:10103000458040204080023545C0204000400235B8
:101040004560A0A0806002354540A0E0A0A0023528
:1010500045C0A0C0A0C002354540A080A0400235D8
:1010600045C0A0A0A0C0023545E080C080E00235A8
:1010700045E080C080800235456080A0A0600235D8
:1010800045A0A0E0A0A0023545E0404040E0023588
:1010900045202020A040023545A0A0C0A0A00235D8
:1010A0004580808080E0023545A0E0E0A0A00235C8
:1010B0004520A0E0A08002354540A0A0A040023518
:1010C00045C0A0C0808001364640A0A0A0402002BC
:1010D0003545C0A0C0A0A002354560804020C002B8
:1010E0003545E040404040023545A0A0A0A0E002C8
:1010F0003545A0A0A0E040023545A0A0E0E0A00258
:101100003545A0A040A0A0023545A0A04040400227
:101110003545E0204080E0122545C0808080C00237
:1011200035458080402020022545C0404040C00514
:10113000324240A0013141E0152242804002344455
:1011400060A0A06002354580C0A0A0C00234446009
:101150008080600235452060A0A06002344440A039
:10116000C0600235452040E0404001354560A06048
:1011700020C002354580C0A0A0A00235454000C077
:1011800040E00136462000202020C002354580A0E6
:10119000C0A0A0023545C0404040E0023444A0E079
:1011A000A0A0023444C0A0A0A002344440A0A040AB
:1011B000013545C0A0C0808001354560A0A06020F9
:1011C000023444A0C0808002344460C020C0023594
:1011D0004540E0404020023444A0A0A060023444D6
:1011E000A0A0A040023444A0A0E0A0023444A0404B
:1011F00040A0013545A0A06020C0023444E020405A
:10120000E00136462040C0404020121545808080D5
:10121000808001364680406040408005424250A0B8
:10122000FFFFFFFFFFFFFFFFFFFFFFFFFFFFFFFFCE
:10123000FFFFFFFFFFFFFFFFFFFFFFFFFFFFFFFFBE
:10124000FF07004012154580008080800235454030
:10125000E080E04002354520406040A002444490D8
:10126000606090023545A040E04040121545808006
:1012700000808001364660C0A06020C0063141A0D9
:101280000146466090D0D0906002354560A0600075
:10129000E003434350A050033242E020043141E0D8
:1012A00003444460F0D060063141E004334340A081
:1012B0004002354540E04000E0032444C04080C087
:1012C000022545C0408040801522424080013545BE
:1012D000A0A0A0C08002454570D0D050501411414C
:1012E00080122242408003244440C04040023545E1
:1012F00040A04000E0034343A050A0014646808048
:10130000805070100146468080B010203001464663
:10131000C0408050B010023545400040806002352A
:10132000458040A0E0A00235452040A0E0A0023565
:1013300045C040A0E0A002354560C0A0E0A0023555
:1013400045A040A0E0A00235454040A0E0A00245F5
:101350004570A0F0A0B001364640A080A0408002B9
:10136000354580E0C080E002354520E0C080E002E5
:10137000354560E0C080E0023545A0E0C080E00275
:10138000354580E04040E002354520E04040E00245
:10139000354540E04040E0023545A0404040E00295
:1013A0004545E050D050E002454550A0E0E0A002A5
:1013B00035458040A0A0400235452040A0A0400215
:1013C00035454040A0A04002454570E0A0A0400245
:1013D0003545A040A0A040033343A040A0023545BE
:1013E00060A0E0A0C00235458040A0A0E0023545E5
:1013F0002040A0A0E00235454000A0A0E002354515
:10140000A000A0A0E00235452000A04040023545E4
:1014100080C0A0C08001364640A0C0A0E080023558
:1014200045804060A060023545204060A0600235E4
:1014300045600060A06002454550A060A060023594
:1014400045A00060A060023545400060A0600244F5
:101450004470B0A07001354540A080604002354521
:101460008040A0C0600235452040A0C060023545E4
:10147000C040A0C060023545A040A0C06002354514
:1014800080404040E002354520C04040E002354504
:1014900040A04040E0023545A000C040E002354594
:1014A000A04060A04002454550A0C0A0A002354524
:1014B000804040A040023545204040A040023545D4
:1014C000400040A040023545E00040A040023545C4
:1014D000A00040A0400235454000E00040023444F6
:1014E00060A0A0C00235458040A0A0600235452024
:1014F00040A0A0600235454000A0A060023545A094
:1015000000A0A0600136462040A0E020C001364681
:101510008080C0A0C080013646A000A0E020C001AD
:10152000050700FF060115022720FFFF06FF06FF43
:10153000080050221656808080800080153353A00A
:10154000A0A002555550F850F85002555570A070A3
:10155000287002465680902040901002455540A0C9
:1015600040A05025135380808012265640808080F2
:101570008040122656804040404080123555A040A1
:10158000E040A00255552020F82020113353604040
:1015900080044151F0122252C0C003445410204034
:1015A0008012365640A0A0A0A04012365640C0403F
:1015B0004040E00246566090102040F0024656F04F
:1015C00010601090600246562060A0F02020024675
:1015D00056F080E01090600246566080E090906087
:1015E000024656F01020204040024656609060901F
:1015F0009060024656609090701060122555C0C0F1
:1016000000C0C00136566060006040801235552031
:1016100040804020034353F000F0123555804020B5
:10162000408012365640A02040004002465660904E
:10163000B0B08060024656609090F090900246569E
:10164000E090E09090E002465660908080906002CA
:101650004656E090909090E0024656F080E0808000
:10166000F0024656F080E08080800246566090800E
:10167000B090700246569090F0909090123656E0DE
:1016800040404040E0024656101010109060024664
:101690005690A0C0C0A0900246568080808080F006
:1016A00002465690F0F090909002465690D0D0B0FE
:1016B000B090024656609090909060024656E0903E
:1016C00090E0808001475760909090D06010024673
:1016D00056E09090E0A090024656609040209060C6
:1016E000123656E04040404040024656909090905E
:1016F000906002465690909090606002465690909E
:1017000090F0F0900246569090606090901236569D
:10171000A0A0A0404040024656F010204080F012A9
:101720003656E080808080E00344548040201012D0
:101730003656E020202020E016325240A0024151CF
:10174000F016225280400244547090B05002465627
:101750008080E09090E002345460808060024656C1
:1017600010107090907002445460B0C060024656F1
:10177000205040E040400145557090608070024626
:10178000568080E09090901236564000C04040E075
:101790001137572000202020A0400246568080A00C
:1017A000C0A090123656C040404040E0024454A0D1
:1017B000F09090024454E0909090024454609090D5
:1017C00060014555E09090E0800145557090907023
:1017D00010024454E090808002445470C030E00213
:1017E00046564040E0404030024454909090701281
:1017F0003454A0A0A0400244549090F0F00244540D
:10180000906060900145559090502040024454F003
:101810002040F01236562040C0404020221656800C
:101820008080808080123656804060404080064232
:101830005250A0FFFFFFFFFFFFFFFFFFFFFFFFFF73
:10184000FFFFFFFFFFFFFFFFFFFFFFFFFFFFFFFFA8
:10185000FFFFFFFF08005022165680008080808026
:101860000146562070A0A070200245553040E0404F
:10187000B00255558870507088123656A0A040E0CE
:10188000404022155580800080801137576080C00D
:10189000A06020C0173151A00157577088A8C8A870
:1018A000887005335360A060035353489048034247
:1018B00052F010143151E00157577088E8C8C888B9
:1018C00070074151F015335340A040025656202076
:1018D000F82020F8142454C04080C0142454C0C000
:1018E00040C01622524080014555909090E0800201
:1018F000465670D0D0505050142252C0C0112252BF
:10190000408014345440C040E005335340A04003AD
:101910005353904890014757808080903070100159
:101920004757808080B0102030014757C0C040D05A
:1019300030701012365640004080A040024656607B
:101940009090F09090024656609090F090900246F1
:1019500056609090F09090024656609090F0909073
:10196000024656906090F09090024656606090F06B
:10197000909002465670A0B0E0A0B001475760902A
:101980008080906040024656F080E08080F0024601
:1019900056F080E08080F0024656F080E08080F0D3
:1019A000024656F080E08080F0123656E04040401B
:1019B00040E0123656E040404040E0123656E040EB
:1019C000404040E0123656E040404040E00246567B
:1019D000E050D05050E0024656B090D0B0B09002E7
:1019E000465660909090906002465660909090901D
:1019F00060024656609090909060024656609090CB
:101A0000909060024656906090909060024454908E
:101A100060609002465670B0B0D0D0E0024656905A
:101A20009090909060024656909090909060024600
:101A300056909090909060024656900090909060E2
:101A4000123656A0A0A040404002465680E090E0EA
:101A500080800246566090A09090A002465640209A
:101A60007090B05002465620407090B050024656DA
:101A700020507090B05002465650A07090B0500266
:101A8000465650007090B05002465660607090B05C
:101A90005002445470B0A070113555608080604091
:101AA000024656402060B0C060024656204060B0FA
:101AB000C06002465640A060B0C060024656A0001A
:101AC00060B0C0601236568040C04040E0123656CA
:101AD0004080C04040E012365640A0C04040E01276
:101AE0003656A000C04040E002465640306090901C
:101AF0006002465650A0E09090900246564020600A
:101B00009090600246562040609090600246566079
:101B1000006090906002465650A06090906002462F
:101B2000565000609090600245556000F0006002E1
:101B3000445470B0D0E0024656402090909070021D
:101B400046562040909090700246566000909090CB
:101B50007002465650009090907001475720409078
:101B60009050204001465680E09090E08001475719
:101B70005000909050204001060D00FE09016602C1
:101B8000D620FFFE0BFE0AFE0D0060221969808040
:101B900080808080800080183363A0A0A0035767F6
:101BA0005050F850F850500259692078A0A0702881
:101BB00028F02002596948A85010204050A89002EF
:101BC000586840A0A040A098906828136380808047
:101BD000113B6B2040408080808080404020113B42
:101BE0006B8040402020202020404080065565200A
:101BF000A870A8200455652020F8202011336360C8
:101C00004080065161F811336340E0400259690891
:101C10000810102040408080025969205088888830
:101C2000888850200259692060A02020202020F8B8
:101C30000259697088880810204080F8025969F8B4
:101C40000810207008088870025969101030505030
:101C500090F81010025969F88080B0C808088870A0
:101C600002596970888080F088888870025969F804
:101C70000810102020404040025969708888887000
:101C80008888887002596970888888780808887000
:101C900011386840E040000040E04011386840E002
:101CA00040000060408002596908102040804020B8
:101CB0001008045464F80000F802596980402010AC
:101CC0000810204080025969708888081020200080
:101CD0002002596970888898A8A8B080780259694C
:101CE0002050888888F8888888025969F0484848D0
:101CF00070484848F00259697088808080808088E8
:101D000070025969F048484848484848F002596903
:101D1000F8808080F0808080F8025969F8808080A7
:101D2000F0808080800259697088808080988888DF
:101D30007002596988888888F88888888812396983
:101D4000E040404040404040E002596938101010E7
:101D50001010109060025969888890A0C0A09088E7
:101D6000880259698080808080808080F80259696B
:101D70008888D8A8A88888888802596988C8C8A887
:101D8000A89898888802596970888888888888887F
:101D900070025969F0888888F080808080015A6AD2
:101DA00070888888888888A87008025969F08888AF
:101DB00088F0A0908888025969708880807008082F
:101DC0008870025969F82020202020202020025904
:101DD000698888888888888888700259698888888E
:101DE00088505050202002596988888888A8A8A85F
:101DF000A85002596988885050205050888802594C
:101E000069888850502020202020025969F8081045
:101E10001020404080F8113B6BE080808080808003
:101E2000808080E0025969808040402010100808BE
:101E3000113B6BE0202020202020202020E00853B0
:101E400063205088015161F82A2262804002566660
:101E5000700878889868025969808080F08888883E
:101E600088F0025666708880808870025969080878
:101E7000087888888888780256667088F880887024
:101E800002596930484040F0404040400058687076
:101E900088888878088870025969808080B0C888EE
:101EA0008888881238684000C040404040E0004ABE
:101EB0006A100030101010109090600259698080F4
:101EC0008090A0C0A09088123969C0404040404036
:101ED0004040E0025666D0A8A8A8A888025666B07E
:101EE000C8888888880256667088888888700058F4
:101EF00068F0888888F080808000586878888888B2
:101F000078080808025666B0C8808080800256664D
:101F10007088601088700258684040F04040404827
:101F2000300256668888888898680256668888884D
:101F30005050200256668888A8A8A8500256668885
:101F400050202050880058688888889868088870D1
:101F5000025666F810204080F8015B6B18202020A4
:101F600020C0202020201822196980808080808055
:101F7000808080015B6BC020202020182020202042
:101F8000C008536348A890FFFFFFFFFFFFFFFFFF5C
:101F9000FFFFFFFFFFFFFFFFFFFFFFFFFFFFFFFF51
:101FA000FFFFFFFFFFFFFFFF0D00602219698000A8
:101FB000808080808080800358682070A8A0A0A8BE
:101FC000702002596930484040E0404048B0035614
:101FD0006688705050708802596988885050F8207F
:101FE000F820202219698080808000808080801203
:101FF0004A6A609080609090601090601A3262A08F
:10200000A00359697088A8D8C8D8A88870045767F1
:10201000700878887800F80356662850A0A05028E9
:10202000045363F80808163161E00359697088E8C1
:10203000D8D8E8D888700A5161F817446460909045
:10204000600357672020F8202000F807356540A07E
:102050002040E007356540A04020C02A2262408031
:102060000058688888888898E8808002596978E8EC
:10207000E8E8E868282828262161C02022624080FC
:1020800007356540C04040E0045767708888887015
:1020900000F8035666A050282850A0025A6A40C093
:1020A0004040E00818283808025A6A40C04040E022
:1020B0001028081038025A6A40A04020A04818286A
:1020C0003808025969200020204080888870025A10
:1020D0006A40200020508888F88888025A6A1020B8
:1020E0000020508888F88888025A6A3048002050BA
:1020F0008888F88888025A6A28500020508888F812
:102100008888025A6A50500020508888F8888802CF
:102110005A6A20502020508888F8888802596958C7
:10212000A0A0A0B0E0A0A0B8005B6B708880808009
:10213000808088702040025A6A402000F88080F039
:102140008080F8025A6A102000F88080F08080F8C1
:10215000025A6A304800F88080F08080F8025A6A9B
:10216000505000F88080F08080F8123A6A80400079
:10217000E04040404040E0123A6A204000E04040E9
:10218000404040E0124A6A609000E04040404040D9
:10219000E0123A6AA0A000E04040404040E002590E
:1021A00069F0484848E8484848F0025A6A28500010
:1021B0008888C8A8988888025A6A40200070888851
:1021C00088888870025A6A102000708888888888F9
:1021D00070025A6A30480070888888888870025A6D
:1021E0006A28500070888888888870025A6A50501F
:1021F00000708888888888700355658850205088CA
:10220000015B6B08709898A8A8A8C8C87080025A8B
:102210006A40200088888888888870025A6A10205E
:102220000088888888888870025A6A3048008888C0
:102230008888888870025A6A505000888888888800
:102240008870025A6A1020008888502020202002BE
:10225000596980F0888888F0808080025969609090
:1022600090A0A0908888B00259694020007008783A
:102270008898680259691020007008788898680268
:102280005969304800700878889868025969285060
:102290000070087888986802596950500070087872
:1022A000889868025A6A30483000700878889868C0
:1022B000025666702870A0A8500058687088808008
:1022C000887020400259694020007088F88088702A
:1022D0000259691020007088F880887002596930AE
:1022E00048007088F88088700259695050007088E2
:1022F000F8808870123969804000C040404040E05A
:10230000123969204000C040404040E012496960F5
:102310009000C040404040E0123969A0A000C04099
:10232000404040E0025A6A502060107088888888D7
:1023300070025969285000B0C88888888802596995
:1023400040200070888888887002596910200070C9
:102350008888888870025969304800708888888821
:1023600070025969285000708888888870025969FD
:10237000505000708888888870035767202000F8C4
:10238000002020015868087098A8A8C870800259D9
:102390006940200088888888986802596910200060
:1023A00088888888986802596930480088888888B1
:1023B0009868025969505000888888889868005B3E
:1023C0006B1020008888889868088870005A6A8096
:1023D00080B0C88888C8B08080005B6B505000888F
:1023E000888898680888700062276D3811241FBE9D
:1023F000CFEFD1E2DEBFCDBF15E0A0E0B2E0E8E074
:10240000F0E800E00BBF02C007900D92A23EB107BA
:10241000D9F72DE0A2EEB5E001C01D92A33EB207B0
:10242000E1F711E1C5EFD1E104C02197FE010E945F
:10243000ED3AC43FD107C9F70E943D290C94F73FFC
:102440000C940000089580E00895FC01A089B189F2
:1024500082E08C93A485B5851C92A685B7858FEC08
:102460008C93108EA489B58986E08C93A289B38958
:102470008C9180618C93A289B3898C9188608C93B4
:10248000A289B3898C9180688C930288F389E02DAE
:1024900080818F7D8083089580918A0D803331F40F
:1024A0008FEF80939F0D8093A00D0895883231F0B7
:1024B000823031F081E080939F0D08958FEFFBCF44
:1024C00083E0F9CF8091830D9091840D009739F1CD
:1024D0002091960DFC01211123C03596E491E093E3
:1024E000970DFC013C96E491E093980D8091970D37
:1024F000082E000C990B2091980D821B910927FD45
:1025000093952091990D203441F0829FC0011124B0
:1025100026E0969587952A95E1F780939A0D089580
:10252000213039F43F96E491E093970DFC017096C9
:10253000DACF3D96E491E093970DFC013E96D3CF20
:102540001092960D0C9462122091830D3091840D9F
:102550002817390761F09093840D8093830D0E94B2
:10256000621283E292E19093950D8093940D089509
:10257000EF92FF920F931F93CF93DF9393E1899F85
:10258000E0011124CD51D54F6A8984E0689FF001A4
:102590001124E953F54FE280F38000811181E8892D
:1025A000F98987EC9AE0099594E0899FF00111245C
:1025B000E953F54F42815381208131818A8BC901D2
:1025C000801B910B9A012E193F093B832A835B875D
:1025D0004A87F986E8861D870C8797FD19C041E078
:1025E00050E0598348831F861E86FC01B9010E9472
:1025F000D93A7D836C83CF01B9010E94D93A9F8378
:102600008E83DF91CF911F910F91FF90EF900895EE
:102610004FEF5FEF59834883EE27FF27E81BF90B45
:1026200041E050E0421B530B5F874E87DFCFEF92B4
:10263000FF920F931F93CF93DF938C0183E1689FE9
:10264000F0011124E953F54F86A57F019CE2E90EC4
:10265000F11CEF01AE96D701ED91FC91682F87EC4C
:102660009AE00995B4E08B9FF0011124E953F54FEE
:10267000228133812017310711F48883ECCFDF9159
:10268000CF911F910F91FF90EF9008956F5FFC0124
:10269000808D681708F060E0862F08956150FC0176
:1026A000808D681710F06FEF680F862F0895FC017A
:1026B000808D8F5F089580917B00877F80937B0062
:1026C00085E480937C0080917A00806480937A0016
:1026D00080917A0086FDFCCF8091780090917900FE
:1026E0000895AF92BF92CF92DF92EF92FF920F9335
:1026F0001F93CF93DF936C017B018B01040F151F98
:10270000EB015E01AE18BF08C017D10759F06991FF
:10271000D601ED91FC910190F081E02DC601099563
:10272000892B79F7C501DF91CF911F910F91FF9010
:10273000EF90DF90CF90BF90AF900895FC01538D44
:10274000448D252F30E0842F90E0821B930B54178B
:1027500010F0CF96089501970895FC01918D828D18
:10276000981761F0A28DAE0FBF2FB11D5D968C91B1
:10277000928D9F5F9F73928F90E008958FEF9FEFF0
:102780000895FC01918D828D981731F0828DE80FAC
:10279000F11D858D90E008958FEF9FEF0895FC0166
:1027A000918D228D892F90E0805C9F4F821B910933
:1027B0008F739927089589E09BE00E94CF1321E051
:1027C000892B09F420E0822F089586EA9BE00E947D
:1027D000CF1321E0892B09F420E0822F0895FC011A
:1027E000A48DA80FB92FB11DA35ABF4F2C91848D72
:1027F00090E001968F739927848FA689B7892C93CF
:10280000A089B1898C91837080648C93938D848D21
:10281000981306C00288F389E02D80818F7D808324
:102820000895EF92FF920F931F93CF93DF93EC01E4
:1028300081E0888F9B8D8C8D98131AC0E889F98967
:10284000808185FF15C09FB7F894EE89FF8960836A
:10285000E889F98980818370806480839FBF81E0EB
:1028600090E0DF91CF911F910F91FF90EF9008952D
:10287000F62E0B8D10E00F5F1F4F0F731127E02E08
:102880008C8D8E110CC00FB607FCFACFE889F98940
:10289000808185FFF5CFCE010E94EF13F1CFEB8D44
:1028A000EC0FFD2FF11DE35AFF4FF0829FB7F89414
:1028B0000B8FEA89FB8980818062CFCF0F931F93B2
:1028C000CF93DF938C01D0E0C0E0F801EC0FFD1F47
:1028D0006491662341F086EA9BE00E941114892BE3
:1028E00011F02196F2CFCE01DF91CF911F910F9180
:1028F0000895CF93DF93EC01888D8823B9F0AA89DE
:10290000BB89E889F9898C9185FD03C0808186FDAA
:102910000DC00FB607FCF7CF8C9185FFF2CF8081F9
:1029200085FFEDCFCE010E94EF13E9CFDF91CF916C
:10293000089580E090E0892B29F00E94E513811131
:102940000E94000080E090E0892B29F00E94DB13B8
:1029500081110E94000080E090E0892B49F080E026
:1029600090E0892B29F00E94000081110E94000054
:1029700080E090E0892B49F080E090E0892B29F0FD
:102980000E94000081110C94000008958150823152
:1029900008F058C0E82FF0E0E053FB4E0C94ED3AFD
:1029A000F014F414E214E814EC142215F714FD14D6
:1029B000011507150B150F151515191522151D15E0
:1029C00023152715809180008F77809380000895CC
:1029D000809180008F7DF9CF80918000877FF5CF37
:1029E00084B58F7784BD089584B58F7DFBCF8091AA
:1029F000B0008F778093B00008958091B0008F7DF4
:102A0000F9CF809190008F77809390000895809106
:102A100090008F7DF9CF80919000877FF5CF8091D6
:102A2000A0008F778093A00008958091A0008F7DF3
:102A3000F9CF8091A000877FF5CF809120018F771B
:102A4000809320010895809120018F7DF9CF80919E
:102A50002001877FF5CF1F93CF93DF93282F30E09E
:102A6000F901E45FF84F8491F901EA53F94FD491E9
:102A7000F901E058F94FC491CC23A9F0162F811128
:102A80000E94C614EC2FF0E0EE0FFF1FEA59F94F39
:102A9000A591B4918FB7F894EC91111108C0D0951D
:102AA000DE23DC938FBFDF91CF911F910895DE2B42
:102AB000F8CFCF93DF9390E0FC01EA53F94F2491D4
:102AC0008058994FFC0184918823C9F090E0880FC9
:102AD000991FFC01E45BF94FA591B491FC01EA59FF
:102AE000F94FC591D49161110DC09FB7F8948C91A5
:102AF000209582238C938881282328839FBFDF9190
:102B0000CF910895623051F49FB7F8943C91822F91
:102B1000809583238C93E8812E2BEFCF8FB7F89489
:102B2000EC912E2B2C938FBFEACF3FB7F894809176
:102B3000670690916806A0916906B0916A0626B56D
:102B4000A89B05C02F3F19F00196A11DB11D3FBFE5
:102B5000BA2FA92F982F8827BC01CD01620F711DB4
:102B6000811D911D42E0660F771F881F991F4A95AE
:102B7000D1F708958F929F92AF92BF92CF92DF923A
:102B8000EF92FF926B017C010E9495154B015C0155
:102B9000C114D104E104F104B9F00E94951568193B
:102BA00079098A099B09683E73408105910580F384
:102BB00021E0C21AD108E108F10888EE880E83E00E
:102BC000981EA11CB11CE4CFFF90EF90DF90CF9036
:102BD000BF90AF909F908F9008952FB7F894609119
:102BE00063067091640680916506909166062FBF1A
:102BF00008950F931F938091B90D9091BA0DDC0148
:102C0000ED91FC910084F185E02D0995892B09F463
:102C1000D7C060E070E0CB010E94BA152091D70DBB
:102C20008091B90D9091BA0DDC01ED91FC91028477
:102C3000F385E02D21110BC009958093C30D8E37CC
:102C4000D1F68091D70D8F5F8093D70DD4CF0995A2
:102C50009091D70DE92FF0E0E754F24F8287923040
:102C6000B9F09930D9F09130A9F48F3F99F01092D2
:102C7000D70D81E08093D90D1092DC0D1092DB0D01
:102C80008093DD0D1092DE0D80E01F910F9108956D
:102C9000863069F79F5F9093D70DADCF8F3E39F7A0
:102CA0002091C50D8091C40D280F3327331FE0916B
:102CB000C60DC9018E0F911D2091C70D280F392F08
:102CC000311D4091C80D50E0240F351F8091C90D72
:102CD00090E06091CA0D70E0762F6627F091CB0DE1
:102CE0006F0F711D280F391F31952195310962171A
:102CF000730709F0BCCF1092D70DE13419F410928C
:102D0000DE0D2FC0E093DA0D542F4427840F951F5A
:102D10009093DC0D8093DB0DEA53E63108F046C05A
:102D2000F0E0EB56F94E0C94ED3AC216CA16D416E2
:102D3000AB16D416B416D216D616D416D416D4168C
:102D4000D416D416D416D416D416D616D416D41631
:102D5000D416D416D41685E08093D90D81E08093E3
:102D6000DD0D8091DD0D91CF80FF02C089E0F4CFB1
:102D700081FF02C084E0F0CF83709927892B89F30B
:102D80008AE0EACF80FF02C087E0E6CF81FFE9CF8B
:102D900082E0E2CF80FF02C088E0DECF81FFE1CF9A
:102DA00083E0DACF86E0D8CF8BE0D6CF81E0809386
:102DB000D90D1092DC0D1092DB0D8093DD0D9FCFAD
:102DC0008091DE0D882369F20E94ED150091BB0D04
:102DD0001091BC0D2091BD0D3091BE0D601B710B8B
:102DE000820B930B0091BF0D1091C00D2091C10D6E
:102DF0003091C20D601771078207930708F4B1CFB5
:102E00001092D70D1092D90D1092DC0D1092DB0D9F
:102E100081E036CF8093D00D272F30E07093D20D14
:102E20006093D30D4091CF0D9091CE0D490F552752
:102E3000551F840F952F911D4091D10D840F911D29
:102E4000820F931F680F792F711D7195619571091C
:102E50007093D40D6093D50D442361F08091DE0D05
:102E6000882341F060E070E0CB010E94BA150E9417
:102E7000F915F4CF8091B90D9091BA0DDC01ED9167
:102E8000FC910280F381E02D4AE050E06DEC7DE0A2
:102E900009950E94ED156093BB0D7093BC0D809356
:102EA000BD0D9093BE0D8091D10D91E0811101C0B7
:102EB00090E09093DE0D811106C06AE070E080E042
:102EC00090E00C94BA150895FC0120853185828527
:102ED0009385281739072CF544855585848195817C
:102EE000480F591F55874487868597856681778166
:102EF000860F971F978786871816190664F46081D6
:102F00007181460F571F5587448742815381841B27
:102F1000950B978786872F5F3F4F3187208781E00A
:102F2000089580E00895DC011696ED91FC911797C5
:102F300012968C91481B477081E090E001C0880F89
:102F40004A95EAF7E60FF11D3081222319F0832B11
:102F50008083089580958323FBCFFB014181DC01B1
:102F600012962C911297421768F013962C91139792
:102F7000241740F0608115962C91621718F4248173
:102F80000C9493170895FC0180819281980F92838D
:102F90002181921760F494819F5F94839381890FBC
:102FA000821710F08FEF820F838381E0089580E015
:102FB0000895FC01128280818150838314820895D8
:102FC000DB01ED91FC9109940F931F93CF93DF9355
:102FD0001F92CDB7DEB70091810D1091820DE09167
:102FE000B00DF091B10D82E0099530E020E04AE0AB
:102FF000B8018FE79DE00E94E017182FE091B00D17
:10300000F091B10D83E00995E091B00DF091B10D13
:1030100080E009951123B9F16091810D7091820DC5
:103020009E012F5F3F4F46E48FE79DE00E94E0172F
:10303000898180937F0D6091810D7091820D9E0139
:103040002F5F3F4F47E48FE79DE00E94E0178981A3
:103050008093800D6091810D7091820D30E020E0B1
:1030600048E48FE79DE00E94E01780938A0D60910D
:10307000810D7091820D22EB3DE047E18FE79DE0ED
:103080000E94E01711E0812F0F90DF91CF911F91E7
:103090000F910895CF93DF938091B80D811105C0F2
:1030A00081E08093B80D0E94E417C091810DD0910A
:1030B000820DE091B00DF091B10D82E00995E091A3
:1030C000B00DF091B10D81E0099530E020E044E1D0
:1030D000BE018FE79DE00E94E01722EB3DE047E153
:1030E000BE018FE79DE00E94E017E091B00DF091E6
:1030F000B10D80E0DF91CF9109940F931F93CF938F
:10310000E0918D0DF0918E0D309719F08FE79DE0D5
:1031100009950091810D1091820DE091B00DF09113
:10312000B10D82E00995E091B00DF091B10D81E013
:10313000099530E020E045E1B8018FE79DE00E946D
:10314000E017C82F882341F022EB3DE047E1B801AA
:103150008FE79DE00E94E017E091B00DF091B10D76
:1031600080E009958C2FCF911F910F910895EF92D8
:10317000FF920F931F93CF93DF93082F162FC42F27
:10318000D42FF82EF40EEE24EA948F2D8D1BD83018
:1031900080F58C2F887F800F9C2F9695969596951D
:1031A00028EF929FC00D1124CC23C1F197E0C927CD
:1031B0006091810D7091820D80939B0D10939C0DF9
:1031C00010929E0DCF5FC7708FEF90E001C0880F07
:1031D000CA95EAF780939D0D2BE93DE04BE38FE71D
:1031E0009DE0DF91CF911F910F91FF90EF900C9494
:1031F000E0176091810D7091820D80939B0D10936B
:103200009C0D10929E0DE0929D0D2BE93DE04BE34D
:103210008FE79DE00E94E017D850B7CFDF91CF91A4
:103220001F910F91FF90EF9008951F93CF93DF931D
:10323000C82F162FDBE0D80F412F6C2F80E00E94A3
:10324000B718CF5FCD13F8CFDF91CF911F910895BD
:103250000B96FC01849108950A96FC0184910895CF
:10326000FC01849108950E943019882321F0823056
:1032700011F083E0089586E00895FC01E60FF11D4A
:10328000849190E0982F88273196E4918E0F911DBC
:10329000089568E00C943D1966E00C943D19BF92C6
:1032A000CF92DF92EF92FF920F931F93CF93DF9312
:1032B0008C01E62EDC011496CD91DC91CE010E94AA
:1032C0003019F82EF801848195810E943319B82EA7
:1032D000F1E0CC24CA94FF1202C02FE0C22ED80124
:1032E00014968D919C910E942C19F82EF8018481DE
:1032F00095810E942819D82ED80114968D919C9101
:103300000E944919B0E6BE1520F5009711F1C80FCB
:10331000D91F91E6F92EDE1468F5D80150961C925B
:10332000509753961C92539754961C9254975196CB
:103330001C92519752961C92D0E0C0E0CE01DF91D2
:10334000CF911F910F91FF90EF90DF90CF90BF90A2
:103350000895F801848195810E944C19F0E4FE15CE
:1033600038F4009729F0C80FD91F81E4F82ED3CF85
:103370006196D1CFDF1488F28B2D90E0FE0124916D
:103380002F3F29F42196FD1441F2F394F7CFFE105C
:103390004BC0D80114968D919C910E9430199E01CA
:1033A0002F5F3F4FFE01882311F08230E1F48491BA
:1033B000D80153968C935397F901249154962C93EA
:1033C0005497FE013396E4915096EC935097FE018A
:1033D0003496E4915196EC935197FE013596E49121
:1033E0005296EC93ABCF8491982F9F709250D80156
:1033F00052969C93529782958F7051968C935197C9
:10340000F9012491822F8F7054968C9354972295B2
:103410002F7053962C935397FE013296E491E295C8
:10342000EF705096EC938ACF3296E491EC21E80F3E
:10343000F92FF11DCE0FDF1FA6CF0F931F93CF9350
:103440008C01C0E0F80161918F01662341F08FE7A4
:103450009DE00E944F1980918F0DC80FF3CF8C2FE4
:10346000CF911F910F9108952EE93FE0009709F445
:103470000895F9013197F1F70197F8CFCF93DF93D2
:1034800000D0CDB7DEB720ED37E03A8329839091A5
:10349000BC00982311F081E00FC029813A81232BD1
:1034A00081F48091B20A81FDF6CF8091B10A811139
:1034B0000DC091E09093B10A0F900F90DF91CF91E2
:1034C000089529813A8121503109DFCF80E0F4CF7E
:1034D00084EA8093BC0061E080E80E943E1A81117A
:1034E00002C080E008958091B900887F883051F053
:1034F000803141F08091B10A8111F3CF82E0809355
:10350000B10AEFCF88E78093BB0084E88093BC00CA
:1035100062E080E80E943E1A882319F38091B20A83
:1035200081FD05C08091B900887F883119F781E05D
:10353000089584E98093BC0064E080E10C943E1A15
:103540008093BB0084E88093BC0063E080E80E9425
:103550003E1A8823A1F08091B20A81FD0DC08091AE
:10356000B900887F883241F08091B10A811106C08C
:1035700092E09093B10A089581E0089580E0089563
:103580001092B10A08958093B20A1092B90084FF94
:1035900005C08CE08093B8000C94C01A88E4FACF80
:1035A000CF93DF93FC0123A5222389F0EC010E9435
:1035B000681A811104C080E0DF91CF9108958EA137
:1035C000811107C00E94A01A8823A9F31BA681E0DD
:1035D000F3CF80E4F7CF0F931F93CF93DF93C62FE2
:1035E000D42F8901633001F138F4613099F06230F1
:1035F00009F449C0C1E012C0663029F1673091F189
:103600006530C1F70E94D01A811117C00E94991A23
:10361000C0E004C0FC0186A50E94C31A8C2FDF9174
:10362000CF911F910F910895FC0116A221E023A7CD
:103630004111E0CF0E94991ADDCF8D2F0E94A01A70
:103640008111D8CFE3CF0E94D01A8823F9F2DD236D
:1036500089F2F80181918F010E94A01A8823B1F2AA
:10366000D150F5CF0E94D01A882381F2DD2311F2C8
:10367000F80184910E94A01AC82F882379F20F5F65
:103680001F4FD150F3CFFC0146A321E023A7B2CFB7
:10369000DB011496ED91FC9130E020E065E00994A7
:1036A000CF92DF92EF92FF920F931F93CF93DF930E
:1036B0008C017B016A0180E0F601C491811110C088
:1036C00081E0CF3F49F04C2FB701C8010E94481B51
:1036D000882309F44DC080E0BFEFCB1ADB0AECCFA2
:1036E0004FEFCF3F89F3CE3F09F443C0C03F98F777
:1036F000C03E60F04C2F4F70D7011496ED91FC91B5
:1037000030E020E062E0C8010995E5CFC03D50F00F
:103710004C2F4F70D7011496ED91FC9130E020E0D2
:1037200063E0F1CFC03CF8F0D7011496ED91FC9125
:1037300030E020E040E064E0C8010995C295C07F18
:10374000CE5FD0E0CE010E94341AD7011496ED91DD
:10375000FC9130E020E041E064E0C8010995CE0131
:103760000E94341AB8CFC7FDB6CF8C2F90E0F8CFA7
:1037700080E0DF91CF911F910F91FF90EF90DF904C
:10378000CF900895AF92BF92CF92DF92FF920F93A6
:103790001F93CF93DF936C018B01F42EE90180E13D
:1037A000481709F484C0841758F1AAE04A1709F4AD
:1037B00062C0F80102811381F2E3FF1609F4CDC063
:1037C000FF1508F47FC085E1F81609F4CBC0A7E126
:1037D000FA1609F4DCC0B4E1FB126FC0D8011696EA
:1037E000ED91FC91179715968C918E0F9F2F911D3F
:1037F00011928E179F07E1F7C8010E94D9175DC08B
:10380000B1E14B1709F45BC0E5E14E13D2CFFB01E8
:10381000A280B3804EE156E0C6010E94501BD50144
:1038200014964C91406BB801C6010E94481BD80108
:103830001496ED91FC9130E020E041E062E0C60199
:103840000995F50126813781D8011496ED91FC91F7
:10385000D50115964C9166E0C601099581111CC0F1
:1038600080E0DF91CF911F910F91FF90DF90CF907B
:10387000BF90AF900895DB011496ED91FC9130E07C
:1038800020E042E061E0C601099546E256E0B80159
:10389000C6010E94501B8DCFD8011496ED91FC916A
:1038A00030E020E040E063E0C601099582CF45E1C9
:1038B00056E0B801C6010E94501B81E0D2CF4AE019
:1038C00056E0F7CFE6E4FE1609F46BC0F7E4FF1606
:1038D00009F46CC08BE3F812F0CF99818B8138E04A
:1038E000390F813031F0833011F0392F02C0392F78
:1038F000985021E0D80113964C91491708F420E024
:1039000041E0391708F040E091E0F80152813517A5
:1039100008F490E0322F342B932311F4242369F21E
:10392000FA80D12CC12C843048F490E0FC01E152A3
:10393000FB4FC08085529B4FDC01DC90F7FE04C03A
:10394000BE01C8010E94AD1788818C0D88838981D2
:103950008D0D8983FF0C91F7B0CFBE01C8010E9485
:10396000AD17ABCFC8010E94C317882309F478CFE5
:10397000D8011696ED91FC91179715968C918E0FA4
:103980009F2F911D11928E179F07E1F796CF1882F6
:10399000F80182818983858181508A8383818B8329
:1039A0008CCFD80115968C91888387CFF8018181BF
:1039B000FBCF0F93FC010150040F84A996A9941723
:1039C00088F0081710F4041778F42150260F83A903
:1039D00095A9961758F0281760F481E0261720F46F
:1039E0000F910895081778F780E0FACF2817A8F705
:1039F000FBCF81E0F5CF0F93CF93DF93C82FD62F66
:103A00000BE0262F482F60E08FE79DE00E94D91C35
:103A1000882339F06D2F8C2FDF91CF910F910C946B
:103A20001519DF91CF910F9108950F931F93CF93A5
:103A3000DF93C82FD62F142F01E0242F462F682F95
:103A40008FE79DE00E94D91C882349F0412F6D2FFC
:103A50008C2FDF91CF911F910F910C94B718DF91AC
:103A6000CF911F910F910895EF92FF920F931F93A3
:103A7000CF93DF939093C80A8093C70A7093CA0AC2
:103A80006093C90A5093CC0A4093CB0A3093CE0A74
:103A90002093CD0A1093D00A0093CF0AF092D20A55
:103AA000E092D10A83E08093DF0A86E493E1909369
:103AB000070B8093060B8EE493E19093F40A8093B6
:103AC000F30AE90181E02617370714F0EB0180E0E3
:103AD0002E153F050CF49701261737070CF49B01B0
:103AE000EC16FD0614F4E70182E08093F50A2C1B26
:103AF0003D0B3093E20A2093E10A232B09F482C0A4
:103B00008093080B61E0CE010E94171360E0CE01A4
:103B10000E94171381E08093E00AA091F50A84E0E7
:103B2000A89FD0011124A953B54FE091080B84E060
:103B3000E89FF0011124E953F54F2D913C918081CC
:103B400091812817390709F451C01092E00AC091F9
:103B5000E10AD091E20A80E00E94B81281E00E945E
:103B6000B8128091E00A882341F083EE9AE00E9427
:103B7000641786EF9AE00E9464176091FE0A7091C4
:103B8000FF0A8091800D86171706F9F0F0F020915A
:103B9000EF0A3091F00A8091020B9091030B2817E5
:103BA0003907BCF597FD11C040917F0D50E02417F7
:103BB00035075CF437FD20E0481759070CF4CA01BB
:103BC000482F421B822F0E94151D83EE9AE00E940F
:103BD0006417882381F186EF9AE00E946417882396
:103BE00071F121971C161D0644F20CC08091E10A68
:103BF0009091E20A01979093E20A8093E10A892B5F
:103C000009F0A5CFDF91CF911F910F91FF90EF9019
:103C1000089537FDDACF40917F0D50E08417950766
:103C2000A4F697FF02C030E020E0241735070CF41B
:103C3000A901481BC8CF80E00E94B812C6CF81E01E
:103C40000E94B812C8CF5F926F927F928F929F921C
:103C5000AF92BF92CF92DF92EF92FF920F931F939A
:103C6000CF93DF93EC01562E142F622F0E944F1931
:103C70006C0180E0C114D104B1F08C819D810E945F
:103C80003319B82EFB88EC888989580E1E198A8949
:103C9000181B0E2D2F2D412F652DCE010E94D91CF2
:103CA000811111C08889DF91CF911F910F91FF90F1
:103CB000EF90DF90CF90BF90AF909F908F907F90CC
:103CC0006F905F900895CB0CD11C87E0F80EF694AE
:103CD000F694F694E10E4E01ECE18E0E911C6F2CE1
:103CE000712C1E15F9F2052D560111C0F5018491B4
:103CF0006A817B810C8F1D8F1F8E8E8F94014BE309
:103D0000CE010E94E017FFEFAF1ABF0A085F8A2DAD
:103D10008C198F1558F3C60CD71C1F5FE2CFEF929A
:103D2000FF920F931F93CF93DF93F82E062FE42E6D
:103D3000152FE091940DF091950D8FE79DE0099579
:103D4000080FCE2DD12F10E02991211108C0812F0D
:103D5000DF91CF911F910F91FF90EF900895402F29
:103D60006F2D8FE79DE00E94231EF80E180FECCFF9
:103D7000CF92DF92EF92FF920F931F93CF93DF9337
:103D8000EC01288130E0F901E45FF84F8491F901FA
:103D9000EA53F94F0491F901E058F94F14911123B6
:103DA00009F459C081110E94C614E12FF0E0EE0F12
:103DB000FF1FE051FA4FA591B491EC910E2391E0D1
:103DC00080E009F490E0092F182F8D8180171106EB
:103DD00031F00E94ED15688779878A879B87802F4D
:103DE00081708D830E94ED15C884D984EA84FB8498
:103DF000AB01BC014C195D096E097F098E819F8161
:103E0000092E000CAA0BBB0B84179507A607B70752
:103E100028F5012B19F50E94ED15088519852A85CD
:103E20003B85DC01CB01801B910BA20BB30B8E8B6E
:103E30009F8BA88FB98F482F392F2A2F9B2F642F44
:103E4000732F822FDF91CF911F910F91FF90EF90F1
:103E5000DF90CF90089510E000E0B7CF40E030E071
:103E600020E090E0ECCF1092AF0A1092550A109229
:103E7000540A1092AE0A81E090E090935B0A80931E
:103E80005A0A8CEF8093C7031092B00A0895AF923C
:103E9000BF92CF92DF92EF92FF920F931F93CF9337
:103EA000DF9327E2C22E22E0D22EEC015C018AE0F1
:103EB000A80EB11C0FEF61E0F60181916F010E9425
:103EC0002B15099383E4E82E8CE0F82E10E0C7014F
:103ED0000E94B81E16161706180619068CF4FE0165
:103EE00031971083CA15DB0531F7DF91CF911F9110
:103EF0000F91FF90EF90DF90CF90BF90AF9008951B
:103F00001F5FFAE1EF0EF11C1A3009F7EBCFE4ED79
:103F1000F9E0119289E0EE3DF807D9F70895E091B4
:103F2000530AF0E0EA56F64F8081811106C081E025
:103F3000809372021092760208951092720281E0CC
:103F40008093760208953091AF0A4091550A5091BE
:103F5000540AE7E4F2E020E080E09181311109C0E9
:103F600091110FC0A82FB0E0A35AB54F2C938F5FCB
:103F700008C04423C1F0511114C0491799F39D3F63
:103F800089F32F5F3496213541F78093C308E82FDA
:103F9000F0E0E35AF54F9FEF813540F491938F5F46
:103FA000FBCF4917F9F23913EACFDCCF08958F928E
:103FB0009F92AF92BF92CF92DF92EF92FF920F93B8
:103FC0001F93CF93DF930E944A1832E0C32E48E537
:103FD000B42E57E5A52E67E5E62E63E1F62EDD2427
:103FE000D39402E322E340E067E28FE79DE00E9482
:103FF000D91C02E914E0C0E081117AC087E79BE197
:104000000E94A4120E94A012F092950DE092940DCD
:1040100080917F0DC82FD0E086E595E00E941D1AA3
:10402000182F0E944C12CE01811B910997FD019619
:104030009595879546E555E064E30E948F1ED092E2
:104040009F0D0E947D188111CCCFDF91CF911F91E0
:104050000F91FF90EF90DF90CF90BF90AF909F9027
:104060008F900895F40184916091810D7091820D7B
:10407000D0939B0DC0939C0DC0929E0D80939D0D7F
:104080002BE93DE04BE38FE79DE00E94E017FFEF57
:104090008F1A9F0AD85FDE3529F7F8013696D4913A
:1040A000D0FF0FC06091810D7091820DA0929B0D89
:1040B000C0939C0D2BE93DE042E38FE79DE00E9419
:1040C000E017D1FF0FC06091810D7091820DB09209
:1040D0009B0DC0939C0D2BE93DE042E38FE79DE0F3
:1040E0000E94E017095F1F4FCF5FC23309F486CFEC
:1040F0004801DEE2B7CFDF92EF92FF920F931F935A
:10410000CF93DF93EC01D62E1CAD0BAD7C0184E088
:10411000E80EF11CE98DFA8DC7010995412F480F72
:104120002D2D602FC7010E94231E9BAD890F8BAFE1
:1041300081E090E0DF91CF911F910F91FF90EF9080
:10414000DF900895089590E080E00895CF92DF9287
:10415000EF92FF920F931F93CF93DF93F82E162FBA
:10416000C42FE22E411102C0C0915C0A00917F0D64
:1041700087E79BE10E94A4120E94A01287E593E1C9
:104180009093950D8093940DEC2FF0E0EE0FFF1FB0
:10419000EB5DF74F6591749183EB9AE00E942839AB
:1041A000C02FD0E083EB9AE00E941D1A6E01C81A5E
:1041B000D108D7FE03C02FEFC21AD20AD594C794F4
:1041C00083EB9AE00E941D1A9E01281B31092833B7
:1041D00031050CF044C0EE2009F441C083EB9AE0B5
:1041E0000E941D1A9E01281B310927333105ECF569
:1041F0008FE195E10E94A4120E94A01247E5C42E0F
:1042000043E1D42ED092950DC092940D83EB9AE0A9
:104210000E941D1AE82E83EB9AE00E941D1A9E014F
:10422000281B3109273331050CF063C083E49FE07C
:104230000E94A4120E94A012D092950DC092940DDB
:1042400083EB9AE00E941D1AC81BD109D7FD219665
:10425000D595C79543EB5AE062E08C2F04C043EB41
:104260005AE060E08C2D0E948F1E87EC98E00E943F
:10427000A4120E94A01287E593E19093950D80937C
:10428000940DFF2049F1EF2DF0E0EE0FFF1FEB5DE5
:10429000F74F6591749183EB9AE00E94283943EBC4
:1042A0005AE062E080E00E948F1EE12FF0E0EE0F06
:1042B000FF1FEB5DF74F6591749183EB9AE00E94CD
:1042C000283983EB9AE00E941D1A43EB5AE062E022
:1042D000081B802F0E948F1E40E86CE080E0DF9179
:1042E000CF911F910F91FF90EF90DF90CF900C94A2
:1042F000151DCE19D109D7FD2196D595C79543EB4C
:104300005AE061E0AACF0F931F93CF93DF93EC01A4
:1043100088819981009759F02A813B8126173707B8
:1043200030F081E0DF91CF911F910F9108958B01C3
:104330006F5F7F4F0E942F3C009759F099838883CD
:104340001B830A832C813D81232B59F7FC011082AA
:10435000E8CF80E0E7CFCF93DF93EC0188819981AC
:10436000009711F00E94A63B198218821D821C82C0
:104370001B821A82DF91CF910895FC018081918187
:10438000009711F00C94A63B0895EF92FF920F93C3
:104390001F93CF93DF93EC017B01198218821B825C
:1043A0001A821D821C82FB0101900020E9F73197DF
:1043B0008F01061B170BB8010E948321811109C0D0
:1043C000CE01DF91CF911F910F91FF90EF900C9450
:1043D000AB211D830C83B70188819981DF91CF9137
:1043E0001F910F91FF90EF900C94193DCF92DF92A7
:1043F000EF92FF920F931F93CF93DF93EC01D62E92
:104400007A018C01005F1F4F69E675E0C8010E94C8
:10441000C521D88260E08D2D0E94591588E290E078
:104420009F838E8319821A821B821C821D821886AA
:1044300019861A861B860E151F05C9F0F701C08064
:10444000D180C114D10441F0E480F580B701C801E6
:104450000E948321811104C0C8010E94AB2107C0C2
:10446000FD8AEC8AB601888999890E94193D1E8AC5
:104470001F8A188E198EDF91CF911F910F91FF9097
:10448000EF90DF90CF900895FB0101900020E9F7B5
:104490003197AF01461B570BDC01ED91FC91028077
:1044A000F381E02D099467E675E086EA9BE00C94C1
:1044B0004422CF93DF930E945E14EC010E945322AA
:1044C0008C0F9D1FDF91CF9108958F929F92AF9295
:1044D000BF92EF92FF920F931F93CF93DF93CDB7CD
:1044E000DEB7A1970FB6F894DEBF0FBECDBF7C013B
:1044F000FA01CB0119A2223008F42AE08E010F5DE7
:104500001F4F822E912CB12CA12CBF01A50194012B
:104510000E94053AF901CA016A300CF5605DD801C4
:104520006E938D01232B242B252B79F790E080E0CF
:10453000109721F0BD01C7010E944422A1960FB639
:10454000F894DEBF0FBECDBFDF91CF911F910F91C9
:10455000FF90EF90BF90AF909F908F900895695C0F
:10456000DECFCF92DF92EF92FF920F931F93CF9304
:10457000DF9377FF21C06A017B01EC01E881F981BB
:104580000190F081E02D6DE209958C0144275527BB
:10459000BA014C195D096E097F092AE0CE010E941B
:1045A0006522800F911FDF91CF911F910F91FF9096
:1045B000EF90DF90CF9008952AE0DF91CF911F9187
:1045C0000F91FF90EF90DF90CF900C9465222F9287
:1045D0003F924F925F926F927F928F929F92AF9293
:1045E000BF92CF92DF92EF92FF920F931F93CF93E0
:1045F000DF93CDB7DEB7C550D1400FB6F894DEBF1C
:104600000FBECDBFD82EF62E3A0118012901CB5F7F
:10461000DE4FC882C550D140B82C0E944A188D2D5B
:1046200090E0880F991F9C012B5D374FCF5FDE4FC5
:1046300039832883C150D1408F2D90E0880F991F76
:104640009C012B5D374FCD5FDE4F39832883C350EC
:10465000D14067E5862E63E1962ECE0101966C016E
:10466000EE2051F021E04B2D6A2DCB5FDE4F88818B
:10467000C550D1400E94A62000917F0D87E79BE1A5
:104680000E94A4120E94A0129092950D8092940D07
:10469000CF5FDE4FE881F981C150D14065917491BF
:1046A00083EB9AE00E94283910E083EB9AE00E94A5
:1046B0001D1A9801281B3109C90137FD01969595EE
:1046C000879543EB5AE069E10E948F1EFF20E9F0D5
:1046D000CD5FDE4FE881F981C350D140659174917F
:1046E00083EB9AE00E94283983EB9AE00E941D1A1E
:1046F0009801281B3109C90137FD019695958795C9
:1047000043EB5AE068E20E948F1E3FEF2316330608
:1047100043063FE7530639F15F924F923F922F9243
:104720008AE695E09F938F93DF92CF920E94203D7F
:10473000C6010E941D1A081B11090FB6F894DEBFAE
:104740000FBECDBF17FF02C00F5F1F4F1595079516
:104750000093B60D88E28093B70DB201A1018BE7FB
:104760009DE00E94B1220E947D18811179CF6114D1
:10477000710431F0B301770C880B990B0E94BA15C4
:10478000CB5FDE4F0FB6F894DEBF0FBECDBFDF911B
:10479000CF911F910F91FF90EF90DF90CF90BF903E
:1047A000AF909F908F907F906F905F904F903F90D1
:1047B0002F900895CF93DF93482F50E070E060E092
:1047C0002AE086EA9BE00E946522EC010E945322C7
:1047D0008C0F9D1FDF91CF910895BC0186EA9BE06D
:1047E0000C9444220895ADE0B2E020910C0286E1E1
:1047F000289F9001112490E080E0F901E80FF91F53
:10480000EE51FC4F40814D93019686319105A9F7F9
:104810000895CF92DF92EF92FF920F931F93CF9361
:10482000DF931092940981E08093450203E41CE039
:10483000C6E4DAE0F12CEE24E39481E090E09C0100
:1048400026543A406901C8010E94B81E1616170680
:10485000180619063CF410924502809194098F5F66
:1048600080939409C8010E94B81E161617061806F0
:104870001906ECF4888181111AC0E882B6016C0F28
:104880007D1F82E10E940A17FF24F394065E1F4FEA
:1048900021963AE0C035D307B1F68F2DDF91CF9145
:1048A0001F910F91FF90EF90DF90CF900895C80176
:1048B0000E94B81E672B682B692B41F788818823DB
:1048C00029F31882F82EE2CFCF93DF93C7E2D2E02C
:1048D00020910C02CE01875292402817190631F020
:1048E00028F060E089910E942B15F2CF81E080933F
:1048F000B609109225021092C1091092BC090E94BB
:10490000ED156093BD097093BE098093BF09909324
:10491000C0090E94ED156093B2097093B3098093AA
:10492000B4099093B509DF91CF910895882361F080
:1049300081E0809362031092660381E090E090939F
:104940005B0A80935A0A08951092620381E0809373
:104950006603F3CF8091C7038C3F71F08093AF0A59
:1049600081E090E090935B0A80935A0A1092AE0A1D
:104970008CEF8093C7030895E091AF0A84E0E89F2D
:10498000F0011124E95BFD4F8181E8CFCF93DF93E4
:10499000BC0186EA9BE00E944422EC010E94532263
:1049A0008C0F9D1FDF91CF910895CF93DF93C82F78
:1049B0000E94F9158823E1F070E060E086E10E9432
:1049C0000A1765E070E080E090E00E94BA15D0E040
:1049D000BE0182E10E940A1765E070E080E090E08D
:1049E0000E94BA15BE0182E1DF91CF910C940A17A3
:1049F000DF91CF9108951F93CF93DF93EC01162F92
:104A00000E94BD39181739F0612FCE01DF91CF9187
:104A10001F910C94C539DF91CF911F9108958F920A
:104A2000AF92BF92CF92DF92EF92FF920F931F93BC
:104A3000CF93DF93142FB22E01111092C809EC010D
:104A40007B016C018AE0C80ED11C6991F70181914C
:104A500091917F010E94FB24FE0131978081882380
:104A600039F0002329F08091C8098F5F8093C8092D
:104A7000CC15DD0551F710935C0A612F81E090E0C1
:104A80000E94FB241092500A812CA12CC12CE12CF5
:104A90000FEF1FEF2FEF3FE744EC59E060E08B2D65
:104AA0000E94E722DF91CF911F910F91FF90EF902D
:104AB000DF90CF90BF90AF908F900C94331FCF9327
:104AC000C82F682F80E190E00E94FB24EAEDF2E01D
:104AD00084E291E0C8130DC090838F5F34968A32D0
:104AE000C9F781E090E090935B0A80935A0ACF91D6
:104AF00008951082F2CF0C94BD39CF92DF92EF92DD
:104B0000FF92CF93DF936B01D42FCAE06D2FC601C4
:104B10000E94FB24C6010E947B25C15011F0D813CE
:104B2000F5CFDF91CF91FF90EF90DF90CF90089578
:104B30000F931F93CF93DF9380935C0A482F61E01C
:104B400070E080E090E00E947D2530915C0AE4ED09
:104B5000F4E04BED54E061E0219174E0279FC00147
:104B60001124895B9D4FDC01231314C013966C93B1
:104B70004E175F0789F7CAE0D0E007E212E060E075
:104B8000802F0E942B152197D1F7DF91CF911F9194
:104B90000F91089513961C92EBCF8093950988236B
:104BA00081F110926E03813081F110927203823094
:104BB00079F1109276034CED55E060E070E08130C1
:104BC00051F040ED57E060E070E0823021F444E8BD
:104BD00053E060E070E04093210250932202609322
:104BE000230270932402482F6CE270E080E090E092
:104BF0000E947D2581E090E090935B0A80935A0AA1
:104C0000089591E090936E03D0CF80937203D1CF3B
:104C100091E090937603DBCFFF92CF93DF93282F21
:104C200030E0FB01E20FF31FD901AA0FBB1FA40F55
:104C3000B51F6D917C91072E000C880B990B40815C
:104C4000E901C35AD54F4423D9F0108240E00E94B5
:104C50007D25E88184E0E89FF0011124E95BFD4FA8
:104C6000138281E090E090935B0A80935A0A8091CE
:104C7000C80981508093C809DF91CF91FF900895B2
:104C8000FF24F394F08241E00E947D25E88184E0D6
:104C9000E89FF0011124E95BFD4FF38281E090E091
:104CA00090935B0A80935A0A8091C8098F5FE2CF84
:104CB0001F920F920FB60F9211240BB60F922F93E3
:104CC0003F934F935F936F937F938F939F93AF9394
:104CD000BF93EF93FF9389E09BE00E94EF13FF9156
:104CE000EF91BF91AF919F918F917F916F915F9164
:104CF0004F913F912F910F900BBE0F900FBE0F90D1
:104D00001F9018951F920F920FB60F9211240BB699
:104D10000F922F938F939F93EF93FF93E091190B33
:104D2000F0911A0B8081E0911F0BF091200B82FD16
:104D30001DC090818091220B8F5F8F732091230B78
:104D4000821741F0E091220BF0E0E75FF44F958F7E
:104D50008093220BFF91EF919F918F912F910F9054
:104D60000BBE0F900FBE0F901F9018958081F2CF51
:104D70001F920F920FB60F9211240BB60F922F9322
:104D80003F934F935F936F937F938F939F93AF93D3
:104D9000BF93EF93FF9386EA9BE00E94EF13FF918E
:104DA000EF91BF91AF919F918F917F916F915F91A3
:104DB0004F913F912F910F900BBE0F900FBE0F9010
:104DC0001F9018951F920F920FB60F9211240BB6D9
:104DD0000F922F938F939F93EF93FF93E091B60BD6
:104DE000F091B70B8081E091BC0BF091BD0B82FD7F
:104DF0001DC090818091BF0B8F5F8F732091C00B7E
:104E0000821741F0E091BF0BF0E0EA55F44F958F27
:104E10008093BF0BFF91EF919F918F912F910F90F6
:104E20000BBE0F900FBE0F901F9018958081F2CF90
:104E30001F920F920FB60F9211242F933F938F93CF
:104E40009F93AF93BF938091630690916406A09166
:104E50006506B09166063091620623E0230F2D3778
:104E600058F50196A11DB11D20936206809363063B
:104E700090936406A0936506B093660680916706DA
:104E800090916806A0916906B0916A060196A11DED
:104E9000B11D8093670690936806A0936906B0934E
:104EA0006A06BF91AF919F918F913F912F910F9083
:104EB0000FBE0F901F90189526E8230F0296A11D94
:104EC000B11DD2CFCF93DF9300D000D000D0CDB7AB
:104ED000DEB710920C0B10920B0B48EE53E060E023
:104EE00070E040930D0B50930E0B60930F0B70937B
:104EF000100B8CE395E090930A0B8093090B2DEC3B
:104F000030E03093160B2093150B2CEC30E03093EF
:104F1000180B2093170B28EC30E030931A0B2093DA
:104F2000190B29EC30E030931C0B20931B0B2AEC5F
:104F300030E030931E0B20931D0B2EEC30E03093AD
:104F4000200B20931F0B1092220B1092230B109218
:104F5000240B1092250B1092A90B1092A80B4093D2
:104F6000AA0B5093AB0B6093AC0B7093AD0B90936B
:104F7000A70B8093A60B85EC90E09093B30B8093E6
:104F8000B20B84EC90E09093B50B8093B40B80EC63
:104F900090E09093B70B8093B60B81EC90E09093E8
:104FA000B90B8093B80B82EC90E09093BB0B80938D
:104FB000BA0B86EC90E09093BD0B8093BC0B1092E3
:104FC000BF0B1092C00B1092C10B1092C20B84EF5A
:104FD00091E0A0E0B0E08093BF0D9093C00DA0934E
:104FE000C10DB093C20D8AE0E8EDF3E0ADECBDE099
:104FF00001900D928A95E1F71092D70D82E080938F
:10500000D80D1092DD0D1092DE0D10927E0D1092D3
:105010007D0D8EE495E090937C0D80937B0D109236
:10502000B60D1092B70D1092B80D1092840D10921B
:10503000830D1092860D1092850D1092880D81E0DF
:105040008093870D82E28093890D10928E0D1092CD
:105050008D0DE2EAFDE080EB9DE02FEF21938E17AE
:105060009F07E1F781E080939F0D23E232E13093C7
:10507000950D2093940D8093960D1092970D10929C
:10508000980D80E48093990D10929A0D82E292E13E
:105090009093B10D8093B00D88EC93E09093820DC6
:1050A0008093810D1092AD0D0E94E4178EE495E07F
:1050B00090937C0D80937B0D6FE675E0CE01019699
:1050C0000E94C521AE014F5F5F4F64E081E69DE025
:1050D0000E94F621CE0101960E94BD2164E775E091
:1050E000CE0101960E94C521AE014F5F5F4F6AE17C
:1050F00087E49DE00E94F621CE0101960E94BD2129
:105100006AE775E0CE0101960E94C521AE014F5FAE
:105110005F4F61E383E49CE00E94F621CE0101969B
:105120000E94BD216EE775E0CE0101960E94C52167
:10513000AE014F5F5F4F6FE28DE59CE00E94F6216C
:10514000CE0101960E94BD2162E875E0CE01019674
:105150000E94C521AE014F5F5F4F6DE287E79CE083
:105160000E94F621CE0101960E94BD2166E875E0FD
:10517000CE0101960E94C521AE014F5F5F4F6BE2E9
:1051800081E99CE00E94F621CE0101960E94BD219A
:105190006AE875E0CE0101960E94C521AE014F5F1D
:1051A0005F4F66E28BEA9CE00E94F621CE010196F9
:1051B0000E94BD216EE875E0CE0101960E94C521D6
:1051C000AE014F5F5F4F68E285EC9CE00E94F621E4
:1051D000CE0101960E94BD2162E975E0CE010196E3
:1051E0000E94C521AE014F5F5F4F62E08FED9CE0F2
:1051F0000E94F621CE0101960E94BD2166E975E06C
:10520000CE0101960E94C521AE014F5F5F4F67E05E
:1052100089EF9CE00E94F621CE0101960E94BD21FB
:105220006AE975E0CE0101960E94C521AE014F5F8B
:105230005F4F64E283E19DE00E94F621CE0101967A
:105240000E94BD216EE975E0CE0101960E94C52144
:10525000AE014F5F5F4F62E28DE29DE00E94F6215A
:10526000CE0101960E94BD2126960FB6F894DEBFAE
:105270000FBECDBFDF91CF910895CF93DF93CDB710
:10528000DEB729970FB6F894DEBF0FBECDBF789476
:1052900084B5826084BD84B5816084BD85B582603B
:1052A00085BD85B5816085BD80916E0081608093EC
:1052B0006E00109281008091810082608093810055
:1052C0008091810081608093810080918000816065
:1052D000809380008091B10084608093B1008091C0
:1052E000B00081608093B0008091910082608093D3
:1052F0009100809191008160809391008091900055
:105300008160809390008091A10082608093A100D1
:105310008091A10081608093A1008091A0008160B4
:105320008093A0008091210182608093210180916F
:10533000210181608093210180912001816080930F
:10534000200180917A00846080937A0080917A00B5
:10535000826080937A0080917A00816080937A00E5
:1053600080917A00806880937A001092C10086EA6A
:105370009BE00E9425120E94D71F81E090E090934D
:105380005B0A80935A0A89E09BE00E9425120E94E2
:1053900053228DEB97E00E94592268EE73E080E083
:1053A00090E00E94BA1589E09BE09093BA0D80933B
:1053B000B90D81E08093D10D70E060E08CE00E9437
:1053C0000A170E94ED154B015C010E94F91581112D
:1053D00011C00E94ED15681979098A099B09613D80
:1053E00077408105910530F460E070E0CB010E94C8
:1053F000BA15EBCF68EC70E080E090E00E94BA153F
:105400001092DD0D8091D90D843009F40FC18930DF
:1054100009F40CC18CEA97E00E9459228BE897E0CE
:105420000E9459228EE697E00E9459226CEC78E0A7
:105430007A836983AB0124E630E090E080E0FC01F0
:10544000EE0FFF1FE40FF51FB901680F791F71837D
:10545000608301968A30910591F7265F3F4F4C5E3D
:105460005F4F283C310549F74BE656E02CE231E02E
:1054700090E080E0FC01EE0FFF1FE40FF51FB90183
:10548000680F791F7183608301968A30910591F7C7
:10549000265F3F4F4C5E5F4F283572E0370741F77C
:1054A0000FED19E0A8012AE090E080E0FA01E80F92
:1054B000F91F108201968A309105C1F72150465F8D
:1054C0005F4F2111F1CFEDE5FAE08EEA9AE02FEF80
:1054D00021938E179F07E1F747E2C42E42E0D42EB6
:1054E00061E081E3C81682E0D80609F0C0C086E119
:1054F0000E94591561E087E10E94591561E088E139
:105500000E94591561E08EE10E94591560E08EE11C
:105510000E942B1533E4C32E3CE0D32E62E0D6016B
:105520008C910E945915BAE1CB0ED11CE7E4CE163E
:10553000EDE0DE0699F762E08091610D0E94591559
:1055400062E08091470D0E94591560E08BE30E9454
:10555000591560E088E30E9459158EEF93E00E9490
:105560007B25863111F0109208028FEF93E00E94A4
:105570007B25863111F01092080280910802882361
:1055800009F48FC181E090E00E947B250E9498255C
:105590008FE290E00E947B2580930A02682F70E0E2
:1055A00086E00E940A178EE190E00E947B2590E041
:1055B00090939A09809399098FE190E00E947B254E
:1055C00090E090939C0980939B0980E290E00E9478
:1055D0007B2590E090939E0980939D0981E190E066
:1055E0000E947B258093960982E190E00E947B25B2
:1055F0008093970983E190E00E947B25809398092E
:105600008FE090E00E947B25D82E682F8FE090E0FD
:105610000E94FB24F2E2DF16A9F11092D20223E2EB
:10562000D21233C081E08093D60231C082E597E088
:105630000E94592261E070E089E00E940A1768EC3C
:1056400070E080E090E00E94BA1584E690E0A0E06F
:10565000B0E08093BF0D9093C00DA093C10DB093A7
:10566000C20D6EE170E086E00E940A17DFCED6011F
:105670008C910E94591560E0F60181916F010E94A2
:105680002B152ECF81E08093D2021092D60281E0BA
:1056900090E090935B0A80935A0A80E190E00E9428
:1056A0007B250E945F258CE090E00E947B25809303
:1056B000440AD12CC12CF601EE0FFF1F69817A81BB
:1056C000E60FF71F808191810E947B25F801EC0D88
:1056D000FD1D80837FEFC71AD70A8AE0C816D10460
:1056E00051F7A981BA815496BA83A983065F1F4FE7
:1056F000A459B940F1F62BE833E03A8329830FE946
:1057000013E0A981BA818D919D91BA83A9830E94EA
:105710007B2591E0811101C090E0F80191938F0108
:1057200029813A812F59334061F799EAC92E93E0D4
:10573000D92E0DEB13E081E090E09A838983BB249E
:10574000B394D6018D919D916D010E947B2591E0CE
:10575000811101C090E0F80191938F01882371F0CD
:10576000E981FA81EE0FFF1FEE0FFF1FEE5EFC4F87
:10577000B0828091C8098F5F8093C80929813A81DE
:105780002F5F3F4F3A8329832B303105D1F68DE0CF
:1057900090E00E947B2580930C020E94F3238EE010
:1057A00090E00E947B2591E0811101C090E09093F0
:1057B000520A8BE290E00E947B2591E0811101C0AA
:1057C00090E09093510A8CE290E00E947B258093B8
:1057D00095090E94CD258DE290E00E947B25809363
:1057E0000B0226E939E03A8329830BE215E0A9810F
:1057F000BA819D91BA83A983F80181918F0161E0FB
:10580000911160E00E942B1529813A812959394074
:1058100071F783E60E94D52422242394312C87E457
:105820009DE00E94B81E16161706180619060CF001
:105830002DC18091C8089091C908A091CA08B09163
:10584000CB08892B8A2B8B2B09F020C18091460233
:10585000882309F470C10E94ED156093560A709375
:10586000570A8093580A9093590A81E090E0A0E08B
:10587000B0E08093C8089093C908A093CA08B09379
:10588000CB08E091AE0AF0E0E35AF54FE08194E0F6
:10589000E99FF0011124E95BFD4F82818093B00AFA
:1058A000FEC082E00E9498256EE18FE290E00E94A7
:1058B000FB248AE080930A02FBE8CF2EF3E0DF2E80
:1058C000AFE98A2EA3E09A2EBFE96B2EB3E07B2EC0
:1058D00061E0D6018D919D916D010E94FB24BB2456
:1058E000B394F401B1924F016C147D0489F761E027
:1058F0008CE090E00E94FB24B092440A60E080E1DA
:1059000090E00E94FB2460E081E190E00E94FB2493
:105910001092960960E082E190E00E94FB241092D0
:10592000970960E083E190E00E94FB2410929809BF
:1059300060E08EE190E00E94FB2410929A091092A0
:10594000990960E08FE190E00E94FB2410929C098D
:1059500010929B0960E080E290E00E94FB2410928C
:105960009E0910929D09E4E9AE2EE9E0BE2ED12CED
:10597000C12CF601EE0FFF1F29813A81E20FF31FC0
:1059800061E0808191810E94FB24F801EC0DFD1DF6
:1059900081E080833FEFC31AD30A6AE0C616D104C0
:1059A00041F789819A8144969A838983065F1F4FC4
:1059B000A816B906E1F6A9EAB3E0BA83A9830DEB0C
:1059C00013E06DEBC62E63E0D62E61E0E981FA812B
:1059D00081919191FA83E9830E94FB2481E0D801AF
:1059E0008D938D01E981FA81CE16DF0671F764E0AF
:1059F0008DE090E00E94FB2484E080930C020E94E2
:105A0000F32360E08EE090E00E94FB241092520AA3
:105A100060E08BE290E00E94FB241092510A61E06A
:105A20008CE290E00E94FB2481E00E94CD2565E09D
:105A30008DE290E00E94FB2485E080930B02809130
:105A40000802882371F066E18EEF93E00E94FB2448
:105A500066E18FEF93E00E94FB2481E080930802CF
:105A6000C0CE23EE34E03A8329830FE115E060E0F5
:105A7000A981BA818D919D91BA83A9830E94FB244B
:105A8000E981FA810E171F0791F7DDCF87E49DE0CA
:105A90000E94B81E672B682B692B09F486C081E62B
:105AA0009DE00E94B81E16161706180619060CF07F
:105AB00088C0809146028823F1F10E94ED15609321
:105AC000560A7093570A8093580A9093590A81E6B0
:105AD0009DE00E94B81E8090C4089090C508A090D8
