:100000000C94E2110C940C120C940C120C940C1223
:100010000C940C120C940C120C940C120C940C12E8
:100020000C940C120C940C120C940C120C940C12D8
:100030000C940C120C940C120C940C120C940C12C8
:100040000C940C120C940C120C940C120C940C12B8
:100050000C940C120C940C120C940C120C948B2714
:100060000C940C120C9455270C942B270C940C1206
:100070000C940C120C940C120C940C120C940C1288
:100080000C940C120C940C120C940C120C940C1278
:100090000C94F5260C94CB260C940C120C940C1298
:1000A0000C940C120C940C120C940C120C940C1258
:1000B0000C940C120C940C120C940C120C940C1248
:1000C0000C940C120C940C120C940C120C940C1238
:1000D0000C940C120C940C120C940C120C940C1228
:1000E0000C940C124241434B0053455420564F4C44
:1000F000554D4520302D333000564F4C554D450061
:100100004F544845522053455454494E4753004E8E
:10011000554D424552204F4620524F554E445300B4
:1001200048415244004D454449554D0045415359BD
:1001300000444946464943554C5459004E4F0059D6
:10014000455300434C554520534F554E4453004EA4
:10015000554D424552204F4620494E50555453006C
:1001600052414E444F4D0054524950205749524538
:1001700000504C4541534520574149540053415686
:10018000494E4700534156494E472057495245531F
:1001900020494E00544F4F2053484F525400534172
:1001A000564500494E50555420313000494E505567
:1001B00054203900494E505554203800494E50556E
:1001C00054203700494E505554203600494E505562
:1001D00054203500494E505554203400494E505556
:1001E00054203300494E505554203200494E50554A
:1001F00054203100434845434B4C4953542053410C
:1002000056454400434845434B4C49535400534FD3
:100210004C564544004E4558540046494E495348B3
:1002200000494E505554204D555354204245204FBF
:100230004E004552524F523A204F4E4C59204F4E8D
:100240004500494E505554204D55535420424520A9
:100250004F4E004552524F523A204154204C454196
:100260005354204F4E4500317300302E3973003007
:100270002E387300302E377320287265636F6D6DD2
:10028000656E6465642900302E367300302E357338
:10029000004F55545055542033004F555450555429
:1002A0002032004F5554505554203100444153489A
:1002B000204455524154494F4E0053544F5245200B
:1002C0004E455720534F4C5554494F4E00505245C0
:1002D0005353204E45585420544F2053544F5245A9
:1002E00000484F4C44205354455020313020414E5B
:1002F0004400484F4C442053544550203920414E2F
:100300004400484F4C442053544550203820414E1F
:100310004400484F4C442053544550203720414E10
:100320004400484F4C442053544550203620414E01
:100330004400484F4C442053544550203520414EF2
:100340004400484F4C442053544550203420414EE3
:100350004400484F4C442053544550203320414ED4
:100360004400484F4C442053544550203220414EC5
:100370004400484F4C442053544550203120414EB6
:100380004400594F552043414E2052454C4541535E
:10039000450053415645442100534156494E47209C
:1003A000535441544520494E004552524F523A2031
:1003B00053455155454E434520495300414444005F
:1003C00044454C415920494E205345434F4E4453D8
:1003D0000053454C454354004F5554505554530019
:1003E0004F4E205748454E20534F4C564544004FE2
:1003F0004646205748454E20534F4C564544004FE3
:1004000055545055542044454C4159004F55545073
:10041000555420545950450050555A5A4C45205374
:10042000455454494E47530053494D4F4E004D4F8C
:1004300052534520434F444500434F4E4E4543548D
:100440002F43555420574952455300534551554564
:100450004E43450053544154450050555A5A4C455B
:100460002054595045004D454E55000000000000F5
:100470000000000000040000000000001F00000059
:100480000000C07F0000000000E0FF00000000004E
:10049000F8FF0300000000FEFB0F00000080FFE0FB
:1004A0003F000000C07F847F000000F01F1FFF019D
:1004B0000000FCC77FFC070000FEE1FFF11F008089
:1004C000FFF8FFC13F00C03FFE7F807F00C08FFF6D
:1004D0001F007E00C0CFFF0F007C00C0F7FF0300AD
:1004E0007800C0F3FF0000780000F07FC0037800C0
:1004F00020F01FF007780030F007FC07780038F094
:1005000003FE07780038F083FF07780038F0E3FF38
:1005100007780038F0FBFF03780038F0FFFF8079A0
:100520000038F0FF3FE0790038F0FF0FF079003835
:10053000F0FF07FC790038F0FF01FF790038F07F09
:10054000C0FF790038F0FFE1FF790038E0FFFBFFE2
:100550007D0038E0FFFF7F7C003880FFFF3F7E009A
:100560003800FEFF8F7F007800F8FFC33F00F801DE
:10057000E0FFF11F00F803C07FFC0700E00F001F41
:10058000FF0100803F00807F000000FE00EE3F0082
:100590000000FC01FF0F000000F0C7FF0300000097
:1005A000C0CFFF0000000000877F000000000000B7
:1005B0001F00000000000004000000000000000018
:1005C0000000000000000000003D3D3D3D3D3D3D80
:1005D0003D3D3D3D3D3D3D3D3D3D3D20534F4C5618
:1005E0004544203D3D3D3D3D3D3D3D3D3D3D3D3D49
:1005F0003D3D3D3D3D3D00000020002300260029FB
:10060000002C002F00320000010000030106010948
:1006100001FFE0FFD1AFFF32FFD0FFFEFFE0FFD1CF
:10062000AEFFD0FFFEFFE0FFD11002FFFEFFD0FFC4
:10063000E0FFC1FFD1AED580A83FD300408D14208C
:1006400002A1C8DA1281CFD9F1DB402EA4A6AFFFF8
:10065000D0FFFE00002100240027002A002D0030DA
:1006600000330001010000040107010A010000221B
:1006700000250028002B002E00310034000201006C
:1006800000050108010B0105050505070508080817
:1006900008020202020A0A08080404040401010113
:1006A000010101010103030303030303030407071B
:1006B000070C0C0C0C0C0C0C0C02020202060606B9
:1006C00006060606060B0B0B0B0B0B0B0B010210A1
:1006D000202008081020401020408002010201085C
:1006E000040201010204081020408080402010080C
:1006F0000402018004020180402010080402010865
:1007000004020101020408102040800102040810C4
:1007100020408000000A0B02090C0D0E080703049C
:1007200001000000000000000000000000000000C8
:1007300000000000000000000000000000000012A7
:100740001110000000000000000000000000000088
:100750000000000000000000004D503320506C618C
:1007600079657220776F726B696E672070726F7037
:1007700065726C7900322E506C6561736520696E0C
:1007800073657274207468652053442063617264D9
:100790002100312E506C6561736520726563686558
:1007A000636B2074686520636F6E6E656374696F38
:1007B0006E2100556E61626C6520746F2062656702
:1007C000696E3A00496E697469616C697A696E672D
:1007D000204D503320506C61796572202E2E2E20D2
:1007E000284D61792074616B6520337E35207365F7
:1007F000636F6E64732900736F6C766564006604C2
:100800005A0454044B0439042E04280418040C041C
:10081000FF03EF03E003D803D103C003BC03A90324
:100820009903920382037203620352034203320369
:10083000220312030203F202E102CD02BA02AC0269
:10084000A3029A0291028C02870274026F026A026A
:10085000670253024202320221021A0215020E02FC
:100860000402F401EC01E401DC01D401CC01C40177
:10087000BC01B401AC01A3019E01940184017D017E
:100880007101670160014F0143013F013C013101EA
:100890002C01250120010F010001F900E900E4000D
:1008A00001090600FF0400E901C620FFFF06FF055D
:1008B000FF02002002142480800080053242A0A0A4
:1008C00001556550F850F8500156662078E038F030
:1008D000200244549020409002455540A040A0F092
:1008E00005122280800126364080808080400126CB
:1008F00036804040404080032232C0C00233434033
:10090000E0400112228080033141E0021121800287
:10091000445410204080023444E0A0A0E00224347B
:1009200040C04040023444E02040E0023444E04013
:1009300020E002344480A0E020023444E0C020E003
:10094000023444E080E0E0023444E020408002349D
:1009500044E0E0A0E0023444E0E020E00213238021
:1009600000800114248000808002233340804002F4
:100970003343E000E0022333804080022434C0404F
:100980000040024454F0B080F00244546090F09073
:10099000024454E0F090F0023444608080600244ED
:1009A00054E09090E0024454F0E080F0024454F0AF
:1009B00080E080024454F080B0F002445490F09003
:1009C0009002142480808080023444E02020C00201
:1009D000445490E09090023444808080E00254645B
:1009E00088D8A88802445490D0B0900244546090B3
:1009F0009060024454E090E080025464F09090E8EB
:100A0000024454F0F0A09002445470C030E002342C
:100A100044E0404040024454909090F0024454908E
:100A200090906002546488A8A850023444A04040CA
:100A3000A002445490F010F0024454F02040F00121
:100A40002636C080808080C002445480402010013F
:100A50002636C040404040C005324240A0014151CE
:100A6000F0052232804002334360A0E0023444802B
:100A7000C0A0C0022333C080C00234442060A06004
:100A8000023343E0A0C00234442040E0400134443B
:100A9000E0E0206002344480C0A0A0021424800062
:100AA0008080012535400040408002344480A0C051
:100AB000A002142480808080025363D0A8A802334F
:100AC00043C0A0A0023343E0A0E0013444C0A0C072
:100AD0008001344460A06020022333C08080023350
:100AE000436040C002344440E04060023343A0A071
:100AF000E0023343A0A04002536388A8500233436E
:100B0000A040A0013444A0E020E0023343C0406094
:100B100001364660408080406001162680808080DB
:100B20008080013646C040202040C005425250A07F
:100B3000024555F0909090F0020020023545A0004B
:100B4000A0A0E0023646408000E0C0E00236464009
:100B5000A00060A0E0023545A00060A0E00236469B
:100B600040200060A0E002364640A04060A0E001C6
:100B70002434C080C0C002364640A000E0C0E0027D
:100B80003545A000E0C0E0023646402000E0C0E06D
:100B9000023444A000404002359540A0004040028D
:100BA00025358040004040024555906090F090020D
:100BB000465660906090F0900246562040F0E080EB
:100BC000F002536378B0F80284941F2E788F0236B7
:100BD0004640A000E0A0E0023545A000E0A0E00211
:100BE0003646804000E0A0E002364640A000A0A0CB
:100BF000E0023646402000A0A0E0013646A000A05A
:100C0000E02060024555906090906002455590004C
:100C10009090F002004002004002004002004002BA
:100C2000004002364640800060A0E002253540804A
:100C3000008080023646204000E0A0E002364620D8
:100C40004000A0A0E002464650A000C0A0A002467E
:100C50005650A090D0B09002152580800080800171
:100C60003646E080E0E020E0064151900177977C35
:100C700082BAA2BA827C02009002334360C0600351
:100C80003242E0200200900177977C82BAB2AA82B9
:100C90007C064151F0043343E0A0E002349440E08C
:100CA00040E0043343C04060042333C040C0052209
:100CB000324080013494A0A0E0800165757CF4741A
:100CC000141413113180020090042333C0404004F7
:100CD0003343E0A0E0023343C060C0017686C448DD
:100CE00050284E84017686C448502C44860176965E
:100CF000C448D0284E8402004002465640206090EE
:100D0000F09002465620406090F090024656609067
:100D10006090F09002465650A06090F090024555C9
:100D2000906090F09002465660006090F0900284CF
:100D3000941F2E788F014555F080F02060024656B2
:100D40004020F0E080F00246562040F0E080F002C3
:100D500046566090F0E080F00246569000F0E08049
:100D6000F002263680408080808002263640804017
:100D700040404002364640A040404040023545A039
:100D80004040404002546470E8487002465650A00B
:100D90000090D0B0024656402060909060024656C7
:100DA0002040609090600246566090609090600293
:100DB000465650A0609090600245559060909060BB
:100DC000023343A040A00166760438586870800260
:100DD00046564020909090F00246562040909090C9
:100DE000F00246566090009090F0024555900090B9
:100DF00090F0024656204090F010F001465680E0F8
:100E00009090E080013545C0C0A0C08002364640C9
:100E1000200060A0E002364640800060A0E002367C
:100E20004640A00060A0E002464650A00060A0E05E
:100E3000023545A00060A0E002364640A04060A018
:100E4000E002536378B0F8012434C080C0C0023699
:100E500046402000E0A0C0023646408000E0A0C02E
:100E600002364640A000E0A0C0023545A000E0A048
:100E7000C00225358040004040022535408000807A
:100E80008002354540A0004040023444A00040406C
:100E900002465660601070906002464650A000C046
:100EA000A0A0023646402000E0A0E0023646408086
:100EB00000E0A0E002364640A000E0A0E002464686
:100EC00050A000E0A0E0023545A000E0A0E002351F
:100ED000454000E0004001556508705070800236C2
:100EE00046402000A0A0E0023646408000A0A0E0DE
:100EF00002364640A000A0A0E0023545A000A0A018
:100F0000E0013747408000A0E0206001354580C007
:100F1000A0C080013646A000A0E0206001040600C9
:100F2000FF05010301FA20FFFF05FF05FF07004051
:100F30001215458080800080053242A0A002454500
:100F4000A0F0A0F0A001364640E0C020E04002350D
:100F500045802040802002454540A040A050151209
:100F60004280801126464080808080400126468055
:100F70004040404080023545A040E040A002354559
:100F80004040E040400122424080043141E01211E3
:100F90004180023545202040808002354540A0E058
:100FA000A04002354540C04040E002354540A02009
:100FB00040E0023545E0204020C0023545A0A0E0D9
:100FC0002020023545E080C020C00235456080C049
:100FD000A040023545E02040808002354560A040B9
:100FE000A0C002354540A06020C01214448000001B
:100FF000800125454000004080023545204080406A
:1010000020033343E000E002354580402040800269
:101010003545C02040004002354560A0A0806002F8
:10102000354540A0E0A0A0023545C0A0C0A0C00248
:10103000354540A080A040023545C0A0A0A0C00218
:101040003545E080C080E0023545E080C080800208
:1010500035456080A0A060023545A0A0E0A0A002B8
:101060003545E0404040E0023545202020A04002C8
:101070003545A0A0C0A0A002354580808080E00258
:101080003545A0E0E0A0A002354520A0E0A0800208
:10109000354540A0A0A040023545C0A0C0808001D9
:1010A000364640A0A0A04020023545C0A0C0A0A068
:1010B00002354560804020C0023545E04040404058
:1010C000023545A0A0A0A0E0023545A0A0A0E040C8
:1010D000023545A0A0E0E0A0023545A0A040A0A0B8
:1010E000023545A0A0404040023545E0204080E068
:1010F000122545C0808080C0023545808040202078
:10110000022545C0404040C005324240A001314167
:10111000E0152242804002344460A0A060023545C0
:1011200080C0A0A0C00234446080806002354520A9
:1011300060A0A06002344440A0C060023545204059
:10114000E0404001354560A06020C002354580C0C8
:10115000A0A0A00235454000C040E0013646200076
:10116000202020C002354580A0C0A0A0023545C087
:10117000404040E0023444A0E0A0A0023444C0A0BB
:10118000A0A002344440A0A040013545C0A0C080CA
:101190008001354560A0A06020023444A0C080805A
:1011A00002344460C020C002354540E04040200287
:1011B0003444A0A0A060023444A0A0A04002344463
:1011C000A0A0E0A0023444A04040A0013545A0A06A
:1011D0006020C0023444E02040E00136462040C098
:1011E0004040201215458080808080013646804036
:1011F0006040408005424250A0FFFFFFFFFFFFFF1D
:10120000FFFFFFFFFFFFFFFFFFFFFFFFFFFFFFFFEE
:10121000FFFFFFFFFFFFFFFFFFFF07004012154525
:10122000800080808002354540E080E04002354506
:1012300020406040A002444490606090023545A088
:1012400040E04040121545808000808001364660B5
:10125000C0A06020C0063141A00146466090D0D0B9
:10126000906002354560A06000E003434350A05009
:10127000033242E020043141E003444460F0D06096
:10128000063141E004334340A04002354540E04090
:1012900000E0032444C04080C0022545C040804097
:1012A000801522424080013545A0A0A0C0800245A3
:1012B0004570D0D05050141141801222424080031A
:1012C000244440C0404002354540A04000E0034374
:1012D00043A050A0014646808080507010014646D1
:1012E0008080B0102030014646C0408050B01002CF
:1012F000354540004080600235458040A0E0A002B6
:1013000035452040A0E0A0023545C040A0E0A00245
:10131000354560C0A0E0A0023545A040A0E0A00295
:1013200035454040A0E0A002454570A0F0A0B001C6
:10133000364640A080A0408002354580E0C080E075
:1013400002354520E0C080E002354560E0C080E025
:10135000023545A0E0C080E002354580E04040E035
:1013600002354520E04040E002354540E04040E0A5
:10137000023545A0404040E0024545E050D050E0F5
:1013800002454550A0E0E0A00235458040A0A040C5
:101390000235452040A0A0400235454040A0A04075
:1013A00002454570E0A0A040023545A040A0A04005
:1013B000033343A040A002354560A0E0A0C0023541
:1013C000458040A0A0E00235452040A0A0E00235C5
:1013D000454000A0A0E0023545A000A0A0E00235F5
:1013E000452000A0404002354580C0A0C0800136A5
:1013F0004640A0C0A0E080023545804060A0600269
:101400003545204060A060023545600060A0600264
:10141000454550A060A060023545A00060A0600274
:101420003545400060A06002444470B0A0700135B2
:101430004540A08060400235458040A0C060023534
:10144000452040A0C060023545C040A0C0600235C4
:1014500045A040A0C06002354580404040E00235D4
:101460004520C04040E002354540A04040E0023504
:1014700045A000C040E0023545A04060A0400245C4
:101480004550A0C0A0A0023545804040A040023594
:1014900045204040A040023545400040A040023574
:1014A00045E00040A040023545A00040A040023584
:1014B000454000E0004002344460A0A0C002354531
:1014C0008040A0A0600235452040A0A060023545C4
:1014D0004000A0A060023545A000A0A060013646F3
:1014E0002040A0E020C00136468080C0A0C080011E
:1014F0003646A000A0E020C001050700FF06011548
:10150000022720FFFF06FF06FF0800502216568024
:101510008080800080153353A0A0A002555550F85C
:1015200050F85002555570A07028700246568090B1
:101530002040901002455540A040A05025135380F4
:10154000808012265640808080804012265680403F
:1015500040404080123555A040E040A00255552043
:1015600020F82020113353604080044151F01222B2
:1015700052C0C00344541020408012365640A0A0F0
:10158000A0A04012365640C0404040E0024656609F
:1015900090102040F0024656F01060109060024615
:1015A000562060A0F02020024656F080E0109060A7
:1015B0000246566080E0909060024656F01020206F
:1015C000404002465660906090906002465660909F
:1015D00090701060122555C0C000C0C00136566022
:1015E0006000604080123555204080402003435306
:1015F000F000F0123555804020408012365640A051
:10160000204000400246566090B0B08060024656CE
:10161000609090F09090024656E090E09090E0024A
:101620004656609080809060024656E09090909080
:10163000E0024656F080E08080F0024656F080E0FE
:10164000808080024656609080B09070024656902E
:1016500090F0909090123656E040404040E00246B4
:101660005610101010906002465690A0C0C0A09076
:101670000246568080808080F002465690F0F090BE
:10168000909002465690D0D0B0B0900246566090EE
:1016900090909060024656E09090E080800147571D
:1016A00060909090D06010024656E09090E0A0903C
:1016B000024656609040209060123656E04040400E
:1016C000404002465690909090906002465690900E
:1016D00090906060024656909090F0F090024656CE
:1016E000909060609090123656A0A0A040404002BA
:1016F0004656F010204080F0123656E08080808000
:10170000E003445480402010123656E02020202070
:10171000E016325240A0024151F01622528040029F
:1017200044547090B0500246568080E09090E002A1
:1017300034546080806002465610107090907002A1
:10174000445460B0C060024656205040E040400122
:10175000455570906080700246568080E090909071
:101760001236564000C04040E0113757200020207C
:1017700020A0400246568080A0C0A090123656C0DD
:1017800040404040E0024454A0F09090024454E0B5
:1017900090909002445460909060014555E0909084
:1017A000E0800145557090907010024454E09080A4
:1017B0008002445470C030E00246564040E0404051
:1017C0003002445490909070123454A0A0A0400273
:1017D00044549090F0F0024454906060900145555C
:1017E0009090502040024454F02040F01236562091
:1017F00040C0404020221656808080808080123673
:101800005680406040408006425250A0FFFFFFFFDC
:10181000FFFFFFFFFFFFFFFFFFFFFFFFFFFFFFFFD8
:10182000FFFFFFFFFFFFFFFFFFFFFFFFFF0800506D
:101830002216568000808080800146562070A0A02D
:1018400070200245553040E040B002555588705038
:101850007088123656A0A040E04040221555808086
:101860000080801137576080C0A06020C0173151C0
:10187000A00157577088A8C8A8887005335360A086
:1018800060035353489048034252F010143151E022
:101890000157577088E8C8C88870074151F0153360
:1018A0005340A0400256562020F82020F81424541B
:1018B000C04080C0142454C0C040C0162252408092
:1018C000014555909090E08002465670D0D050501F
:1018D00050142252C0C0112252408014345440C0CF
:1018E00040E005335340A0400353539048900147D4
:1018F0005780808090307010014757808080B010F2
:101900002030014757C0C040D030701012365640CA
:10191000004080A040024656609090F090900246B1
:1019200056609090F09090024656609090F09090A3
:10193000024656609090F09090024656906090F06B
:101940009090024656606090F0909002465670A0CB
:10195000B0E0A0B0014757609080809060400246A0
:1019600056F080E08080F0024656F080E08080F003
:10197000024656F080E08080F0024656F080E0801B
:1019800080F0123656E040404040E0123656E040CB
:10199000404040E0123656E040404040E0123656AB
:1019A000E040404040E0024656E050D05050E00257
:1019B0004656B090D0B0B09002465660909090904D
:1019C00060024656609090909060024656609090FB
:1019D00090906002465660909090906002465690BB
:1019E00060909090600244549060609002465670FF
:1019F000B0B0D0D0E00246569090909090600246F1
:101A00005690909090906002465690909090906082
:101A1000024656900090909060123656A0A0A040CA
:101A2000404002465680E090E0808002465660903A
:101A3000A09090A002465640207090B050024656AA
:101A400020407090B05002465620507090B0500226
:101A5000465650A07090B05002465650007090B05C
:101A60005002465660607090B05002445470B0A06E
:101A7000701135556080806040024656402060B04D
:101A8000C060024656204060B0C06002465640A08A
:101A900060B0C060024656A00060B0C0601236560A
:101AA0008040C04040E01236564080C04040E012C6
:101AB000365640A0C04040E0123656A000C040401C
:101AC000E002465640306090906002465650A0E0DA
:101AD00090909002465640206090906002465620BA
:101AE00040609090600246566000609090600246B0
:101AF0005650A060909060024656500060909060F2
:101B00000245556000F0006002445470B0D0E0021D
:101B100046564020909090700246562040909090FB
:101B200070024656600090909070024656500090A9
:101B300090907001475720409090502040014656A9
:101B400080E09090E08001475750009090502040F6
:101B500001060D00FE09016602D620FFFE0BFE0AFB
:101B6000FE0D006022196980808080808080008066
:101B7000183363A0A0A00357675050F850F8505096
:101B80000259692078A0A0702828F02002596948DD
:101B9000A85010204050A89002586840A0A040A033
:101BA000989068281363808080113B6B20404080B0
:101BB00080808080404020113B6B8040402020206E
:101BC000202040408006556520A870A82004556557
:101BD0002020F82020113363604080065161F81105
:101BE000336340E0400259690808101020404080EB
:101BF0008002596920508888888888502002596955
:101C00002060A02020202020F802596970888808D0
:101C100010204080F8025969F808102070080888E0
:101C200070025969101030505090F8101002596924
:101C3000F88080B0C8080888700259697088808070
:101C4000F088888870025969F808101020204040F8
:101C5000400259697088888870888888700259693C
:101C600070888888780808887011386840E04000DB
:101C70000040E04011386840E040000060408002D1
:101C80005969081020408040201008045464F8006E
:101C900000F8025969804020100810204080025945
:101CA000697088880810202000200259697088888F
:101CB00098A8A8B080780259692050888888F88848
:101CC0008888025969F048484870484848F00259E5
:101CD00069708880808080808870025969F04848E7
:101CE0004848484848F0025969F8808080F0808070
:101CF00080F8025969F8808080F0808080800259E5
:101D0000697088808080988888700259698888887E
:101D100088F888888888123969E04040404040400F
:101D200040E00259693810101010101090600259EC
:101D300069888890A0C0A0908888025969808080B6
:101D40008080808080F80259698888D8A8A888880F
:101D5000888802596988C8C8A8A8989888880259AC
:101D600069708888888888888870025969F08888AE
:101D700088F080808080015A6A7088888888888886
:101D8000A87008025969F0888888F0A090888802B5
:101D90005969708880807008088870025969F82035
:101DA000202020202020200259698888888888885F
:101DB000888870025969888888885050502020028D
:101DC000596988888888A8A8A8A85002596988886D
:101DD00050502050508888025969888850502020DF
:101DE000202020025969F808101020404080F81186
:101DF0003B6BE0808080808080808080E002596939
:101E0000808040402010100808113B6BE02020200B
:101E1000202020202020E0085363205088015161B9
:101E2000F82A226280400256667008788898680214
:101E30005969808080F088888888F00256667088AA
:101E400080808870025969080808788888888878AE
:101E50000256667088F880887002596930484040A0
:101E6000F040404040005868708888887808887042
:101E7000025969808080B0C8888888881238684094
:101E800000C040404040E0004A6A1000301010108E
:101E90001090906002596980808090A0C0A09088C6
:101EA000123969C040404040404040E0025666D090
:101EB000A8A8A8A888025666B0C88888888802564C
:101EC00066708888888870005868F0888888F080F4
:101ED00080800058687888888878080808025666E4
:101EE000B0C880808080025666708860108870025A
:101EF00058684040F0404040483002566688888824
:101F000088986802566688888850502002566688ED
:101F100088A8A8A8500256668850202050880058EB
:101F2000688888889868088870025666F81020408B
:101F300080F8015B6B1820202020C0202020201872
:101F4000221969808080808080808080015B6BC0E6
:101F5000202020201820202020C008536348A8906B
:101F6000FFFFFFFFFFFFFFFFFFFFFFFFFFFFFFFF81
:101F7000FFFFFFFFFFFFFFFFFFFFFFFFFFFFFFFF71
:101F8000FF0D006022196980008080808080808041
:101F90000358682070A8A0A0A87020025969304892
:101FA0004040E0404048B00356668870505070880A
:101FB00002596988885050F820F820202219698039
:101FC0008080800080808080124A6A60908060906B
:101FD00090601090601A3262A0A00359697088A8BE
:101FE000D8C8D8A88870045767700878887800F82F
:101FF0000356662850A0A05028045363F80808161A
:102000003161E00359697088E8D8D8E8D888700A47
:102010005161F8174464609090600357672020F87E
:10202000202000F807356540A02040E007356540D6
:10203000A04020C02A226240800058688888888892
:1020400098E8808002596978E8E8E8E86828282854
:10205000262161C0202262408007356540C0404093
:10206000E0045767708888887000F8035666A050AF
:10207000282850A0025A6A40C04040E0081828387A
:1020800008025A6A40C04040E01028081038025A3E
:102090006A40A04020A0481828380802596920004A
:1020A00020204080888870025A6A40200020508892
:1020B00088F88888025A6A10200020508888F8889A
:1020C00088025A6A30480020508888F88888025A66
:1020D0006A28500020508888F88888025A6A505030
:1020E0000020508888F88888025A6A2050202050A2
:1020F0008888F8888802596958A0A0A0B0E0A0A0FC
:10210000B8005B6B7088808080808088702040027F
:102110005A6A402000F88080F08080F8025A6A10E5
:102120002000F88080F08080F8025A6A304800F879
:102130008080F08080F8025A6A505000F88080F069
:102140008080F8123A6A804000E04040404040E021
:10215000123A6A204000E04040404040E0124A6AA3
:10216000609000E04040404040E0123A6AA0A00089
:10217000E04040404040E0025969F0484848E848A3
:102180004848F0025A6A2850008888C8A898888869
:10219000025A6A40200070888888888870025A6ACB
:1021A00010200070888888888870025A6A30480039
:1021B00070888888888870025A6A285000708888D9
:1021C00088888870025A6A50500070888888888889
:1021D000700355658850205088015B6B0870989893
:1021E000A8A8A8C8C87080025A6A402000888888B9
:1021F00088888870025A6A102000888888888888B1
:1022000070025A6A30480088888888888870025A24
:102210006A50500088888888888870025A6A10201E
:10222000008888502020202002596980F088888802
:10223000F0808080025969609090A0A0908888B05A
:10224000025969402000700878889868025969101E
:102250002000700878889868025969304800700832
:1022600078889868025969285000700878889868BA
:10227000025969505000700878889868025A6A308C
:10228000483000700878889868025666702870A0F8
:10229000A850005868708880808870204002596972
:1022A0004020007088F88088700259691020007002
:1022B00088F88088700259693048007088F88088F2
:1022C000700259695050007088F88088701239691E
:1022D000804000C040404040E0123969204000C0CA
:1022E00040404040E0124969609000C0404040409A
:1022F000E0123969A0A000C040404040E0025A6AA4
:1023000050206010708888888870025969285000B1
:10231000B0C88888888802596940200070888888F9
:102320008870025969102000708888888870025966
:102330006930480070888888887002596928500080
:102340007088888888700259695050007088888821
:102350008870035767202000F80020200158680883
:102360007098A8A8C87080025969402000888888A1
:1023700088986802596910200088888888986802BF
:10238000596930480088888888986802596950508F
:1023900000888888889868005B6B1020008888888F
:1023A0009868088870005A6A8080B0C88888C8B069
:1023B0008080005B6B50500088888898680888701F
:1023C0003828443B11241FBECFEFD1E2DEBFCDBF82
:1023D0001BE0A0E0B2E0E6EBF5E800E00BBF02C0D6
:1023E00007900D92AC34B107D9F723E1ACE4BBE020
:1023F00001C01D92A134B207E1F711E1C1EED1E1B4
:1024000004C02197FE010E94C43DC03ED107C9F718
:102410000E94132A0C94CE420C940000089580E090
:102420000895FC01A089B18982E08C93A485B585CB
:102430001C92A685B7858FEC8C93108EA489B589E4
:1024400086E08C93A289B3898C9180618C93A28958
:10245000B3898C9188608C93A289B3898C918068B0
:102460008C930288F389E02D80818F7D808308958D
:102470008091E812803331F48FEF8093FD128093C6
:10248000FE120895883231F0823031F081E080937D
:10249000FD1208958FEFFBCF83E0F9CF8091E11219
:1024A0009091E212009739F12091F412FC01211170
:1024B00023C03596E491E093F512FC013C96E4913B
:1024C000E093F6128091F512082E000C990B2091E2
:1024D000F612821B910927FD93952091F712203463
:1024E00041F0829FC001112426E0969587952A9598
:1024F000E1F78093F8120895213039F43F96E49182
:10250000E093F512FC017096DACF3D96E491E093EA
:10251000F512FC013E96D3CF1092F4120C944E1299
:102520002091E1123091E2122817390761F090935F
:10253000E2128093E1120E944E128FE092E190939A
:10254000F3128093F2120895EF92FF920F931F936C
:10255000CF93DF9393E1899FE0011124CF5BDF4E9E
:102560006A8984E0689FF0011124EB5DFF4EE280F0
:10257000F38000811181E889F98985E290E109956C
:1025800094E0899FF0011124EB5DFF4E428153815D
:10259000208131818A8BC901801B910B9A012E19F0
:1025A0003F093B832A835B874A87F986E8861D8734
:1025B0000C8797FD19C041E050E0598348831F867E
:1025C0001E86FC01B9010E94B03D7D836C83CF0162
:1025D000B9010E94B03D9F838E83DF91CF911F91FF
:1025E0000F91FF90EF9008954FEF5FEF598348836D
:1025F000EE27FF27E81BF90B41E050E0421B530B8D
:102600005F874E87DFCFEF92FF920F931F93CF9399
:10261000DF938C0183E1689FF0011124EB5DFF4E95
:1026200086A57F019CE2E90EF11CEF01AE96D70171
:10263000ED91FC91682F85E290E10995B4E08B9FC4
:10264000F0011124EB5DFF4E228133812017310709
:1026500011F48883ECCFDF91CF911F910F91FF9000
:10266000EF9008956F5FFC01808D681708F060E0BF
:10267000862F08956150FC01808D681710F06FEF70
:10268000680F862F0895FC01808D8F5F0895AF92AB
:10269000BF92CF92DF92EF92FF920F931F93CF934F
:1026A000DF936C017B018B01040F151FEB015E01B1
:1026B000AE18BF08C017D10759F06991D601ED9146
:1026C000FC910190F081E02DC6010995892B79F7E5
:1026D000C501DF91CF911F910F91FF90EF90DF9097
:1026E000CF90BF90AF900895FC01538D448D252F5E
:1026F00030E0842F90E0821B930B541710F0CF969C
:10270000089501970895FC01918D828D981761F0CD
:10271000A28DAE0FBF2FB11D5D968C91928D9F5FE4
:102720009F73928F90E008958FEF9FEF0895FC01C3
:10273000918D828D981731F0828DE80FF11D858D76
:1027400090E008958FEF9FEF0895FC01918D228D09
:10275000892F90E0805C9F4F821B91098F7399278E
:10276000089587E690E10E94A51321E0892B09F4E2
:1027700020E0822F089584E091E10E94A51321E0DA
:10278000892B09F420E0822F0895FC01A48DA80F65
:10279000B92FB11DA35ABF4F2C91848D90E00196A3
:1027A0008F739927848FA689B7892C93A089B189C3
:1027B0008C91837080648C93938D848D981306C064
:1027C0000288F389E02D80818F7D80830895EF92C8
:1027D000FF920F931F93CF93DF93EC0181E0888FDB
:1027E0009B8D8C8D98131AC0E889F989808185FFAB
:1027F00015C09FB7F894EE89FF896083E889F9894D
:1028000080818370806480839FBF81E090E0DF914E
:10281000CF911F910F91FF90EF900895F62E0B8DA1
:1028200010E00F5F1F4F0F731127E02E8C8D8E115C
:102830000CC00FB607FCFACFE889F989808185FFC3
:10284000F5CFCE010E94C513F1CFEB8DEC0FFD2F1C
:10285000F11DE35AFF4FF0829FB7F8940B8FEA897E
:10286000FB8980818062CFCFCF93DF93EC01888D8D
:102870008823B9F0AA89BB89E889F9898C9185FDFB
:1028800003C0808186FD0DC00FB607FCF7CF8C9189
:1028900085FFF2CF808185FFEDCFCE010E94C51369
:1028A000E9CFDF91CF91089580E090E0892B29F066
:1028B0000E94BB1381110E94000080E090E0892BF0
:1028C00029F00E94B11381110E94000080E090E085
:1028D000892B49F080E090E0892B29F00E940000CC
:1028E00081110E94000080E090E0892B49F080E097
:1028F00090E0892B29F00E94000081110C940000C7
:1029000008958150823108F058C0E82FF0E0E55773
:10291000FB4E0C94C43DAB14AF149D14A314A71428
:10292000DD14B214B814BC14C214C614CA14D014E2
:10293000D414DD14D814DE14E214809180008F7753
:10294000809380000895809180008F7DF9CF8091E1
:102950008000877FF5CF84B58F7784BD089584B5D7
:102960008F7DFBCF8091B0008F778093B00008956A
:102970008091B0008F7DF9CF809190008F77809308
:1029800090000895809190008F7DF9CF8091900004
:10299000877FF5CF8091A0008F778093A000089566
:1029A0008091A0008F7DF9CF8091A000877FF5CF27
:1029B000809120018F7780932001089580912001DC
:1029C0008F7DF9CF80912001877FF5CF1F93CF9323
:1029D000DF93282F30E0F901ED5EF84F8491F90183
:1029E000E353F94FD491F901E957F94FC491CC233E
:1029F000A9F0162F81110E948114EC2FF0E0EE0F48
:102A0000FF1FE359F94FA591B4918FB7F894EC915A
:102A1000111108C0D095DE23DC938FBFDF91CF91D9
:102A20001F910895DE2BF8CFCF93DF9390E0FC0148
:102A3000E353F94F24918957994FFC0184918823DE
:102A4000C9F090E0880F991FFC01ED5AF94FA5914C
:102A5000B491FC01E359F94FC591D49161110DC0B6
:102A60009FB7F8948C91209582238C93888128239A
:102A700028839FBFDF91CF910895623051F49FB7B3
:102A8000F8943C91822F809583238C93E8812E2BA0
:102A9000EFCF8FB7F894EC912E2B2C938FBFEACF0A
:102AA0003FB7F8948091D50B9091D60BA091D70B9E
:102AB000B091D80B26B5A89B05C02F3F19F0019601
:102AC000A11DB11D3FBFBA2FA92F982F8827BC0188
:102AD000CD01620F711D811D911D42E0660F771FB0
:102AE000881F991F4A95D1F708958F929F92AF92B0
:102AF000BF92CF92DF92EF92FF926B017C010E9416
:102B000050154B015C01C114D104E104F104B9F08A
:102B10000E945015681979098A099B09683E73401B
:102B20008105910580F321E0C21AD108E108F1087E
:102B300088EE880E83E0981EA11CB11CE4CFFF90A4
:102B4000EF90DF90CF90BF90AF909F908F900895BF
:102B50002FB7F8946091D10B7091D20B8091D30B69
:102B60009091D40B2FBF08950F931F93809117134B
:102B700090911813DC01ED91FC910084F185E02D1A
:102B80000995892B09F4D7C060E070E0CB010E9461
:102B90007515209135138091171390911813DC014E
:102BA000ED91FC910284F385E02D21110BC0099574
:102BB000809321138E37D1F6809135138F5F8093E8
:102BC0003513D4CF099590913513E92FF0E0E95EE4
:102BD000FC4E82879230B9F09930D9F09130A9F447
:102BE0008F3F99F01092351381E080933713109244
:102BF0003A131092391380933B1310923C1380E0E8
:102C00001F910F910895863069F79F5F9093351358
:102C1000ADCF8F3E39F72091231380912213280FD7
:102C20003327331FE0912413C9018E0F911D20918A
:102C30002513280F392F311D4091261350E0240F02
:102C4000351F8091271390E06091281370E0762F54
:102C50006627F09129136F0F711D280F391F3195C9
:102C6000219531096217730709F0BCCF1092351313
:102C7000E13419F410923C132FC0E0933813542F11
:102C80004427840F951F90933A1380933913EA5386
:102C9000E63108F046C0F0E0E05BF94E0C94C43D2C
:102CA0007D1685168F1666168F166F168D16911661
:102CB0008F168F168F168F168F168F168F168F16EC
:102CC00091168F168F168F168F168F1685E08093AC
:102CD000371381E080933B1380913B1391CF80FFAA
:102CE00002C089E0F4CF81FF02C084E0F0CF83709E
:102CF0009927892B89F38AE0EACF80FF02C087E019
:102D0000E6CF81FFE9CF82E0E2CF80FF02C088E01A
:102D1000DECF81FFE1CF83E0DACF86E0D8CF8BE052
:102D2000D6CF81E08093371310923A131092391363
:102D300080933B139FCF80913C13882369F20E94BC
:102D4000A8150091191310911A1320911B1330919B
:102D50001C13601B710B820B930B00911D131091C0
:102D60001E1320911F1330912013601771078207E3
:102D7000930708F4B1CF10923513109237131092C5
:102D80003A131092391381E036CF80932E13272FF8
:102D900030E0709330136093311340912D13909174
:102DA0002C13490F5527551F840F952F911D4091C6
:102DB0002F13840F911D820F931F680F792F711DA0
:102DC00071956195710970933213609333134423A5
:102DD00061F080913C13882341F060E070E0CB010A
:102DE0000E9475150E94B415F4CF8091171390912D
:102DF0001813DC01ED91FC910280F381E02D4AE093
:102E000050E06BE273E109950E94A81560931913D5
:102E100070931A1380931B1390931C1380912F139C
:102E200091E0811101C090E090933C13811106C0A4
:102E30006AE070E080E090E00C9475150895FC0164
:102E40002085318582859385281739072CF544859F
:102E5000558584819581480F591F558744878685FC
:102E6000978566817781860F971F978786871816C3
:102E7000190664F460817181460F571F5587448796
:102E800042815381841B950B978786872F5F3F4F25
:102E90003187208781E0089580E00895DC0116964F
:102EA000ED91FC91179712968C91481B477081E029
:102EB00090E001C0880F4A95EAF7E60FF11D3081D6
:102EC000222319F0832B8083089580958323FBCFE1
:102ED000FB014181DC0112962C911297421768F098
:102EE00013962C911397241740F0608115962C911E
:102EF000621718F424810C944E170895FC01808108
:102F00009281980F92832181921760F494819F5F40
:102F100094839381890F821710F08FEF820F838340
:102F200081E0089580E00895FC0112828081815043
:102F3000838314820895DB01ED91FC9109940F9332
:102F40001F93CF93DF931F92CDB7DEB70091DF12AF
:102F50001091E012E0910E13F0910F1382E00995A9
:102F600030E020E04AE0B8018DED92E10E949B172D
:102F7000182FE0910E13F0910F1383E00995E09163
:102F80000E13F0910F1380E009951123B9F16091B0
:102F9000DF127091E0129E012F5F3F4F46E48DEDEE
:102FA00092E10E949B1789818093DD126091DF126C
:102FB0007091E0129E012F5F3F4F47E48DED92E14B
:102FC0000E949B1789818093DE126091DF127091BD
:102FD000E01230E020E048E48DED92E10E949B1782
:102FE0008093E8126091DF127091E01220E133E1EA
:102FF00047E18DED92E10E949B1711E0812F0F9028
:10300000DF91CF911F910F910895CF93DF9380911E
:103010001613811105C081E0809316130E949F173B
:10302000C091DF12D091E012E0910E13F0910F13D6
:1030300082E00995E0910E13F0910F1381E009955C
:1030400030E020E044E1BE018DED92E10E949B174B
:1030500020E133E147E1BE018DED92E10E949B1733
:10306000E0910E13F0910F1380E0DF91CF9109945E
:103070000F931F93CF93E091EB12F091EC123097E6
:1030800019F08DED92E109950091DF121091E01297
:10309000E0910E13F0910F1382E00995E0910E1369
:1030A000F0910F1381E0099530E020E045E1B8018F
:1030B0008DED92E10E949B17C82F882341F020E1FB
:1030C00033E147E1B8018DED92E10E949B17E09159
:1030D0000E13F0910F1380E009958C2FCF911F9163
:1030E0000F910895EF92FF920F931F93CF93DF9369
:1030F000082F162FC42FD42FF82EF40EEE24EA94A6
:103100008F2D8D1BD83080F58C2F887F800F9C2FC2
:1031100096959695969528EF929FC00D1124CC23F5
:10312000C1F197E0C9276091DF127091E01280939E
:10313000F9121093FA121092FC12CF5FC7708FEF42
:1031400090E001C0880FCA95EAF78093FB1229EF3F
:1031500032E14BE38DED92E1DF91CF911F910F9121
:10316000FF90EF900C949B176091DF127091E0122A
:103170008093F9121093FA121092FC12E092FB1253
:1031800029EF32E14BE38DED92E10E949B17D8507D
:10319000B7CFDF91CF911F910F91FF90EF900895DE
:1031A0001F93CF93DF93C82F162FDBE0D80F412F4B
:1031B0006C2F80E00E947218CF5FCD13F8CFDF91A3
:1031C000CF911F9108950B96FC01849108950A9662
:1031D000FC0184910895FC01849108950E94EB18EC
:1031E000882321F0823011F083E0089586E008956D
:1031F000FC01E60FF11D849190E0982F882731960D
:10320000E4918E0F911D089568E00C94F81866E023
:103210000C94F818BF92CF92DF92EF92FF920F9327
:103220001F93CF93DF938C01E62EDC011496CD9192
:10323000DC91CE010E94EB18F82EF8018481958173
:103240000E94EE18B82EF1E0CC24CA94FF1202C0FE
:103250002FE0C22ED80114968D919C910E94E71800
:10326000F82EF801848195810E94E318D82ED801A8
:1032700014968D919C910E940419B0E6BE1520F51C
:10328000009711F1C80FD91F91E6F92EDE1468F5E9
:10329000D80150961C92509753961C92539754966F
:1032A0001C92549751961C92519752961C92D0E0C2
:1032B000C0E0CE01DF91CF911F910F91FF90EF9071
:1032C000DF90CF90BF900895F801848195810E948E
:1032D0000719F0E4FE1538F4009729F0C80FD91F3C
:1032E00081E4F82ED3CF6196D1CFDF1488F28B2DF5
:1032F00090E0FE0124912F3F29F42196FD1441F224
:10330000F394F7CFFE104BC0D80114968D919C9189
:103310000E94EB189E012F5F3F4FFE01882311F0A2
:103320008230E1F48491D80153968C935397F9013C
:10333000249154962C935497FE013396E491509621
:10334000EC935097FE013496E4915196EC9351978B
:10335000FE013596E4915296EC93ABCF8491982F71
:103360009F709250D80152969C93529782958F707D
:1033700051968C935197F9012491822F8F70549616
:103380008C93549722952F7053962C935397FE014C
:103390003296E491E295EF705096EC938ACF329694
:1033A000E491EC21E80FF92FF11DCE0FDF1FA6CF1E
:1033B0000F931F93CF938C01C0E0F80161918F01AF
:1033C000662341F08DED92E10E940A198091ED1281
:1033D000C80FF3CF8C2FCF911F910F9108952EE935
:1033E0003FE0009709F40895F9013197F1F701974B
:1033F000F8CFCF93DF9300D0CDB7DEB720ED37E025
:103400003A8329839091BC00982311F081E00FC08A
:1034100029813A81232B81F48091101081FDF6CF10
:1034200080910F1081110DC091E090930F100F90BB
:103430000F90DF91CF91089529813A812150310970
:10344000DFCF80E0F4CF84EA8093BC0061E080E8C5
:103450000E94F919811102C080E008958091B9009D
:10346000887F883051F0803141F080910F108111B8
:10347000F3CF82E080930F10EFCF88E78093BB00FB
:1034800084E88093BC0062E080E80E94F9198823F8
:1034900019F38091101081FD05C08091B900887FDB
:1034A000883119F781E0089584E98093BC0064E0D5
:1034B00080E10C94F9198093BB0084E88093BC00F0
:1034C00063E080E80E94F9198823A1F08091101030
:1034D00081FD0DC08091B900887F883241F08091D4
:1034E0000F10811106C092E090930F10089581E0B3
:1034F000089580E0089510920F10089580931010A1
:103500001092B90084FF05C08CE08093B8000C9441
:103510007B1A88E4FACFCF93DF93FC0123A5222303
:1035200089F0EC010E94231A811104C080E0DF9130
:10353000CF9108958EA1811107C00E945B1A882344
:10354000A9F31BA681E0F3CF80E4F7CF0F931F937D
:10355000CF93DF93C62FD42F8901633001F138F464
:10356000613099F0623009F449C0C1E012C06630A0
:1035700029F1673091F16530C1F70E948B1A8111F2
:1035800017C00E94541AC0E004C0FC0186A50E9426
:103590007E1A8C2FDF91CF911F910F910895FC011E
:1035A00016A221E023A74111E0CF0E94541ADDCFDB
:1035B0008D2F0E945B1A8111D8CFE3CF0E948B1A06
:1035C0008823F9F2DD2389F2F80181918F010E94AD
:1035D0005B1A8823B1F2D150F5CF0E948B1A882351
:1035E00081F2DD2311F2F80184910E945B1AC82F49
:1035F000882379F20F5F1F4FD150F3CFFC0146A310
:1036000021E023A7B2CFDB011496ED91FC9130E0CD
:1036100020E065E00994CF92DF92EF92FF920F9342
:103620001F93CF93DF938C017B016A0180E0F60149
:10363000C491811110C081E0CF3F49F04C2FB701F8
:10364000C8010E94031B882309F44DC080E0BFEF2E
:10365000CB1ADB0AECCF4FEFCF3F89F3CE3F09F413
:1036600043C0C03F98F7C03E60F04C2F4F70D70169
:103670001496ED91FC9130E020E062E0C8010995DC
:10368000E5CFC03D50F04C2F4F70D7011496ED910F
:10369000FC9130E020E063E0F1CFC03CF8F0D701CE
:1036A0001496ED91FC9130E020E040E064E0C80128
:1036B0000995C295C07FCE5FD0E0CE010E94EF1980
:1036C000D7011496ED91FC9130E020E041E064E0F8
:1036D000C8010995CE010E94EF19B8CFC7FDB6CF3A
:1036E0008C2F90E0F8CF80E0DF91CF911F910F9168
:1036F000FF90EF90DF90CF900895AF92BF92CF925E
:10370000DF92FF920F931F93CF93DF936C018B0196
:10371000F42EE90180E1481709F484C0841758F1B8
:10372000AAE04A1709F462C0F80102811381F2E3AA
:10373000FF1609F4CDC0FF1508F47FC085E1F81627
:1037400009F4CBC0A7E1FA1609F4DCC0B4E1FB121E
:103750006FC0D8011696ED91FC91179715968C9134
:103760008E0F9F2F911D11928E179F07E1F7C801B1
:103770000E9494175DC0B1E14B1709F45BC0E5E10D
:103780004E13D2CFFB01A280B38045E256E0C601C2
:103790000E940B1BD50114964C91406BB801C601D9
:1037A0000E94031BD8011496ED91FC9130E020E0BB
:1037B00041E062E0C6010995F50126813781D80113
:1037C0001496ED91FC91D50115964C9166E0C601D9
:1037D000099581111CC080E0DF91CF911F910F915D
:1037E000FF90DF90CF90BF90AF900895DB011496CB
:1037F000ED91FC9130E020E042E061E0C6010995E6
:103800004DE256E0B801C6010E940B1B8DCFD801D6
:103810001496ED91FC9130E020E040E063E0C601B9
:10382000099582CF4CE156E0B801C6010E940B1BFE
:1038300081E0D2CF41E156E0F7CFE6E4FE1609F48D
:103840006BC0F7E4FF1609F46CC08BE3F812F0CFFD
:1038500099818B8138E0390F813031F0833011F05C
:10386000392F02C0392F985021E0D80113964C917E
:10387000491708F420E041E0391708F040E091E0F2
:10388000F8015281351708F490E0322F342B93233E
:1038900011F4242369F2FA80D12CC12C843048F42D
:1038A00090E0FC01E752FC4FC0808B529C4FDC0142
:1038B000DC90F7FE04C0BE01C8010E946817888131
:1038C0008C0D888389818D0D8983FF0C91F7B0CF92
:1038D000BE01C8010E946817ABCFC8010E947E17C5
:1038E000882309F478CFD8011696ED91FC911797AB
:1038F00015968C918E0F9F2F911D11928E179F07F9
:10390000E1F796CF1882F801828189838581815001
:103910008A8383818B838CCFD80115968C91888381
:1039200087CFF8018181FBCF0F93FC010150040F79
:1039300084A996A9941788F0081710F4041778F44E
:103940002150260F83A995A9961758F0281760F4DF
:1039500081E0261720F40F910895081778F780E08A
:10396000FACF2817A8F7FBCF81E0F5CF0F93CF93BD
:10397000DF93C82FD62F0BE0262F482F60E08DED68
:1039800092E10E94941C882339F06D2F8C2FDF91D7
:10399000CF910F910C94D018DF91CF910F91089592
:1039A0000F931F93CF93DF93C82FD62F142F01E0CF
:1039B000242F462F682F8DED92E10E94941C8823BE
:1039C00049F0412F6D2F8C2FDF91CF911F910F91D7
:1039D0000C947218DF91CF911F910F910895EF927F
:1039E000FF920F931F93CF93DF93909326108093B2
:1039F0002510709328106093271050932A1040933D
:103A0000291030932C1020932B1010932E1000931C
:103A10002D10F0923010E0922F1083E080933D1033
:103A200082E393E190936510809364108AE393E1BD
:103A30009093521080935110E90181E026173707C7
:103A400014F0EB0180E02E153F050CF497012617CA
:103A500037070CF49B01EC16FD0614F4E70182E035
:103A6000809353102C1B3D0B3093401020933F103C
:103A7000232B09F482C08093661061E0CE010E947E
:103A8000031360E0CE010E94031381E080933E1097
:103A9000A091531084E0A89FD0011124AB5DBF4ECC
:103AA000E091661084E0E89FF0011124EB5DFF4E89
:103AB0002D913C91808191812817390709F451C0DB
:103AC00010923E10C0913F10D091401080E00E94B3
:103AD000A41281E00E94A41280913E10882341F03C
:103AE00081E490E10E941F1784E590E10E941F1776
:103AF00060915C1070915D108091DE128617170640
:103B0000F9F0F0F020914D1030914E10809160103E
:103B10009091611028173907BCF597FD11C04091AD
:103B2000DD1250E0241735075CF437FD20E048171C
:103B300059070CF4CA01482F421B822F0E94D01C47
:103B400081E490E10E941F17882381F184E590E1D0
:103B50000E941F17882371F121971C161D0644F23D
:103B60000CC080913F1090914010019790934010AD
:103B700080933F10892B09F0A5CFDF91CF911F9142
:103B80000F91FF90EF90089537FDDACF4091DD124D
:103B900050E084179507A4F697FF02C030E020E0BC
:103BA000241735070CF4A901481BC8CF80E00E94F8
:103BB000A412C6CF81E00E94A412C8CF5F926F9278
:103BC0007F928F929F92AF92BF92CF92DF92EF92AD
:103BD000FF920F931F93CF93DF93EC01562E142F78
:103BE000622F0E940A196C0180E0C114D104B1F067
:103BF0008C819D810E94EE18B82EFB88EC88898903
:103C0000580E1E198A89181B0E2D2F2D412F652D38
:103C1000CE010E94941C811111C08889DF91CF913F
:103C20001F910F91FF90EF90DF90CF90BF90AF90DA
:103C30009F908F907F906F905F900895CB0CD11CD8
:103C400087E0F80EF694F694F694E10E4E01ECE15E
:103C50008E0E911C6F2C712C1E15F9F2052D56013C
:103C600011C0F50184916A817B810C8F1D8F1F8E9D
:103C70008E8F94014BE3CE010E949B17FFEFAF1A8A
:103C8000BF0A085F8A2D8C198F1558F3C60CD71CF4
:103C90001F5FE2CFEF92FF920F931F93CF93DF93BB
:103CA000F82E062FE42E152FE091F212F091F31268
:103CB0008DED92E10995080FCE2DD12F10E02991BD
:103CC000211108C0812FDF91CF911F910F91FF909B
:103CD000EF900895402F6F2D8DED92E10E94DE1D33
:103CE000F80E180FECCFCF92DF92EF92FF920F9366
:103CF0001F93CF93DF93EC01288130E0F901ED5E53
:103D0000F84F8491F901E353F94F0491F901E95710
:103D1000F94F1491112309F459C081110E948114A3
:103D2000E12FF0E0EE0FFF1FE950FA4FA591B4919B
:103D3000EC910E2391E080E009F490E0092F182F18
:103D40008D818017110631F00E94A8156887798748
:103D50008A879B87802F81708D830E94A815C884D5
:103D6000D984EA84FB84AB01BC014C195D096E095E
:103D70007F098E819F81092E000CAA0BBB0B841733
:103D80009507A607B70728F5012B19F50E94A81576
:103D9000088519852A853B85DC01CB01801B910BA9
:103DA000A20BB30B8E8B9F8BA88FB98F482F392F07
:103DB0002A2F9B2F642F732F822FDF91CF911F917A
:103DC0000F91FF90EF90DF90CF90089510E000E00A
:103DD000B7CF40E030E020E090E0ECCFCF93DF932E
:103DE000C82F70E060E086E10E94C51665E070E0D3
:103DF00080E090E00E947515D0E0BE0182E10E9453
:103E0000C51665E070E080E090E00E947515BE0187
:103E100082E1DF91CF910C94C51610920D10109293
:103E2000B30F1092B20F10920C1081E090E09093BB
:103E3000B90F8093B80F8CEF8093B30310920E10DC
:103E40000895AF92BF92CF92DF92EF92FF920F93BD
:103E50001F93CF93DF9323E1C22E22E0D22EEC01F9
:103E60005C018AE0A80EB11C0FEF61E0F6018191C0
:103E70006F010E94E614099381EAE82E81E1F82E91
:103E800010E0C7010E94731E1616170618061906C1
:103E90008CF4FE0131971083CA15DB0531F7DF91F1
:103EA000CF911F910F91FF90EF90DF90CF90BF9037
:103EB000AF9008951F5FFAE1EF0EF11C1A3009F779
:103EC000EBCFE2E3FFE011928FE0EC33F807D9F794
:103ED0000895E091B10FF0E0EC5FF04F8081811127
:103EE00006C081E080935E021092620208951092F3
:103EF0005E0281E080936202089530910D1040913E
:103F0000B30F5091B20FE3E3F2E020E080E0918143
:103F1000311109C091110FC0A82FB0E0A554B04FC6
:103F20002C938F5F08C04423C1F0511114C049176E
:103F300099F39D3F89F32F5F3496213541F78093A4
:103F4000320EE82FF0E0E554F04F9FEF813540F45A
:103F500091938F5FFBCF4917F9F23913EACFDCCF8A
:103F600008958F929F92AF92BF92CF92DF92EF927D
:103F7000FF920F931F93CF93DF930E94051832E0B7
:103F8000C32E48E5B42E57E5A52E63E4E62E63E183
:103F9000F62EDD24D39402E322E340E067E28DEDC8
:103FA00092E10E94941C0BE614E0C0E081117AC0FB
:103FB00080E59BE10E9490120E948C12F092F31215
:103FC000E092F2128091DD12C82FD0E082E495E0F9
:103FD0000E94D819182F0E943812CE01811B910916
:103FE00097FD01969595879542E455E064E30E941C
:103FF0004A1ED092FD120E9438188111CCCFDF9159
:10400000CF911F910F91FF90EF90DF90CF90BF90D5
:10401000AF909F908F900895F40184916091DF128A
:104020007091E012D093F912C093FA12C092FC1270
:104030008093FB1229EF32E14BE38DED92E10E9478
:104040009B17FFEF8F1A9F0AD85FDE3529F7F8011B
:104050003696D491D0FF0FC06091DF127091E012BC
:10406000A092F912C093FA1229EF32E142E38DEDEA
:1040700092E10E949B17D1FF0FC06091DF127091F7
:10408000E012B092F912C093FA1229EF32E142E342
:104090008DED92E10E949B17095F1F4FCF5FC233E6
:1040A00009F486CF4801DEE2B7CFDF92EF92FF92AC
:1040B0000F931F93CF93DF93EC01D62E1CAD0BAD66
:1040C0007C0184E0E80EF11CE98DFA8DC7010995A9
:1040D000412F480F2D2D602FC7010E94DE1D9BAD83
:1040E000890F8BAF81E090E0DF91CF911F910F910D
:1040F000FF90EF90DF900895089590E080E008959C
:10410000CF92DF92EF92FF920F931F93CF93DF93A3
:10411000F82E162FC42FE22E411102C0C091BA0F03
:104120000091DD1280E59BE10E9490120E948C12AA
:1041300083E493E19093F3128093F212EC2FF0E07A
:10414000EE0FFF1FE250F84F6591749181E190E10D
:104150000E94FF3BC02FD0E081E190E10E94D8197E
:104160006E01C81AD108D7FE03C02FEFC21AD20AB7
:10417000D594C79481E190E10E94D8199E01281B33
:104180003109283331050CF044C0EE2009F441C058
:1041900081E190E10E94D8199E01281B3109273343
:1041A0003105ECF588EF94E10E9490120E948C1288
:1041B00043E4C42E43E1D42ED092F312C092F21203
:1041C00081E190E10E94D819E82E81E190E10E94FE
:1041D000D8199E01281B3109273331050CF063C023
:1041E0008CE19FE00E9490120E948C12D092F312F8
:1041F000C092F21281E190E10E94D819C81BD10946
:10420000D7FD2196D595C79541E150E162E08C2F0D
:1042100004C041E150E160E08C2D0E944A1E80EA1A
:1042200098E00E9490120E948C1283E493E1909394
:10423000F3128093F212FF2049F1EF2DF0E0EE0F20
:10424000FF1FE250F84F6591749181E190E10E9467
:10425000FF3B41E150E162E080E00E944A1EE12F15
:10426000F0E0EE0FFF1FE250F84F6591749181E18D
:1042700090E10E94FF3B81E190E10E94D81941E169
:1042800050E162E0081B802F0E944A1E40E86CE06B
:1042900080E0DF91CF911F910F91FF90EF90DF9021
:1042A000CF900C94D01CCE19D109D7FD2196D5956D
:1042B000C79541E150E161E0AACF0F931F93CF93DF
:1042C000DF93EC0188819981009759F02A813B8125
:1042D0002617370730F081E0DF91CF911F910F91C2
:1042E00008958B016F5F7F4F0E94063F009759F042
:1042F000998388831B830A832C813D81232B59F763
:10430000FC011082E8CF80E0E7CFCF93DF93EC0190
:1043100088819981009711F00E947D3E1982188250
:104320001D821C821B821A82DF91CF910895FC01AD
:1043300080819181009711F00C947D3E0895EF9259
:10434000FF920F931F93CF93DF93EC017B011982B0
:1043500018821B821A821D821C82FB0101900020A0
:10436000E9F731978F01061B170BB8010E945D21F9
:10437000811109C0CE01DF91CF911F910F91FF9064
:10438000EF900C9485211D830C83B701888199815E
:10439000DF91CF911F910F91FF90EF900C94F03F20
:1043A000CF92DF92EF92FF920F931F93CF93DF9301
:1043B000EC01D62E7A018C01005F1F4F65E575E098
:1043C000C8010E949F21D88260E08D2D0E941415A3
:1043D00088E290E09F838E8319821A821B821C825E
:1043E0001D82188619861A861B860E151F05C9F0B0
:1043F000F701C080D180C114D10441F0E480F58080
:10440000B701C8010E945D21811104C0C8010E944A
:10441000852107C0FD8AEC8AB601888999890E94A6
:10442000F03F1E8A1F8A188E198EDF91CF911F913F
:104430000F91FF90EF90DF90CF900895FB010190D6
:104440000020E9F73197AF01461B570BDC01ED91D6
:10445000FC910280F381E02D099463E575E084E02E
:1044600091E10C941E220F931F93CF93DF938C0145
:10447000D0E0C0E0F801EC0FFD1F6491662341F02D
:1044800084E091E10E94E713892B11F02196F2CF8D
:104490000E942D228C0F9D1FDF91CF911F910F91B4
:1044A00008958F929F92AF92BF92EF92FF920F93D7
:1044B0001F93CF93DF93CDB7DEB7A1970FB6F894D4
:1044C000DEBF0FBECDBF7C01FA01CB0119A22230A5
:1044D00008F42AE08E010F5D1F4F822E912CB12C23
:1044E000A12CBF01A50194010E94DC3CF901CA0185
:1044F0006A300CF5605DD8016E938D01232B242B5F
:10450000252B79F790E080E0109721F0BD01C701DD
:104510000E941E22A1960FB6F894DEBF0FBECDBF3B
:10452000DF91CF911F910F91FF90EF90BF90AF90CF
:104530009F908F900895695CDECFCF92DF92EF92CB
:10454000FF920F931F93CF93DF9377FF21C06A01F0
:104550007B01EC01E881F9810190F081E02D6DE2B1
:1045600009958C0144275527BA014C195D096E093C
:104570007F092AE0CE010E945122800F911FDF9116
:10458000CF911F910F91FF90EF90DF90CF90089502
:104590002AE0DF91CF911F910F91FF90EF90DF9074
:1045A000CF900C9451222F923F924F925F926F9234
:1045B0007F928F929F92AF92BF92CF92DF92EF92B3
:1045C000FF920F931F93CF93DF93CDB7DEB7C55004
:1045D000D1400FB6F894DEBF0FBECDBFD82EF62E59
:1045E0003A0118012901CB5FDE4FC882C550D14086
:1045F000B82C0E9405188D2D90E0880F991F9C0102
:104600002250384FCF5FDE4F39832883C150D140CD
:104610008F2D90E0880F991F9C012250384FCD5F5D
:10462000DE4F39832883C350D14063E4862E63E193
:10463000962ECE0101966C01EE2051F021E04B2D1B
:104640006A2DCB5FDE4F8881C550D1400E9480200B
:104650000091DD1280E59BE10E9490120E948C1275
:104660009092F3128092F212CF5FDE4FE881F981CF
:10467000C150D1406591749181E190E10E94FF3B6E
:1046800010E081E190E10E94D8199801281B3109BE
:10469000C90137FD01969595879541E150E169E1A2
:1046A0000E944A1EFF20E9F0CD5FDE4FE881F981CC
:1046B000C350D1406591749181E190E10E94FF3B2C
:1046C00081E190E10E94D8199801281B3109C901A4
:1046D00037FD01969595879541E150E168E20E948A
:1046E0004A1E3FEF2316330643063FE7530639F1D0
:1046F0005F924F923F922F9286E595E09F938F9322
:10470000DF92CF920E94F73FC6010E94D819081B82
:1047100011090FB6F894DEBF0FBECDBF17FF02C060
:104720000F5F1F4F159507950093141388E2809330
:104730001513B201A10189ED92E10E949D220E9410
:104740003818811179CF6114710431F0B301770CFD
:10475000880B990B0E947515CB5FDE4F0FB6F8944E
:10476000DEBF0FBECDBFDF91CF911F910F91FF90A4
:10477000EF90DF90CF90BF90AF909F908F907F9001
:104780006F905F904F903F902F900895CF93DF935D
:10479000482F50E070E060E02AE084E091E10E9460
:1047A0005122EC010E942D228C0F9D1FDF91CF9191
:1047B0000895BC0184E091E10C941E22CF92DF9217
:1047C000EF92FF92CF93DF93EC016A017B018BE5BF
:1047D00095E00E94D923CE010E94D9238FEFC816FD
:1047E000D806E8068FE7F80631F0B701A60184E0A5
:1047F00091E10E949D22DF91CF91FF90EF90DF9099
:10480000CF900C942D220F931F93CF93DF93C82F3B
:10481000D0E08B010C0F1D1F482F50E070E060E0CE
:10482000F8018081C554D04F8823F1F083E695E0EC
:104830000E94DE23F8011082E88184E0E89FF00105
:104840001124ED5CFD4F138281E090E09093B90F4D
:104850008093B80F8091260F81508093260FDF91AF
:10486000CF911F910F91089586E795E00E94DE2376
:1048700081E0F8018083E88194E0E99FF001112450
:10488000ED5CFD4F838381E090E09093B90F8093BE
:10489000B80F8091260F8F5FE0CF9F92AF92BF92AB
:1048A000CF92DF92EF92FF920F931F93CF93DF93FC
:1048B0001092030F81E08093310201EA11E1C4EA12
:1048C000DFE0C12CD12C7601B12CAA24A394C8011D
:1048D0000E94731E16161706180619063CF410924D
:1048E00031028091030F8F5F8093030FC8010E94F4
:1048F000731E1616170618061906BCF58881811155
:1049000034C0A8824091030F50E070E060E084E87A
:1049100095E00E94DE23B6016F5F7F4F82E10E9427
:10492000C516B701A60189E995E00E94DE23BB24E4
:10493000B394065E1F4F21968FEFC81AD80AE80A73
:10494000F80A8AE0C816D104E104F10409F0BFCFE7
:104950008B2DDF91CF911F910F91FF90EF90DF9002
:10496000CF90BF90AF909F900895C8010E94731E92
:10497000672B682B692BE9F698809920D1F2188271
:104980004091030F50E070E060E084E895E00E9401
:10499000DE23B701A6018BEA95E00E94DE23B92C45
:1049A000C8CFCF93DF93C3E1D2E020910C02CE01B8
:1049B000835192402817190631F028F060E0899160
:1049C0000E94E614F2CF4FEF5FEF6FEF7FE78EEBC1
:1049D00095E00E94DE2381E08093140F1092110273
:1049E00010921F0F10921A0F0E94A8156093100FBB
:1049F0007093110F8093120F9093130FDF91CF914B
:104A00000895CF93C82F4FEF5FEF6FEF7FE78AECEA
:104A100095E00E94DE234C2F50E070E060E08CEDCA
:104A200095E00E94DE23CC2369F081E080934E0361
:104A30001092520381E090E09093B90F8093B80FE9
:104A4000CF91089510924E0381E080935203F2CFEC
:104A50004091B3034C3FF1F040930D1050E070E0F3
:104A600060E084EE95E00E94DE2340910D1050E05E
:104A700070E060E08FEE95E00E94DE2381E090E040
:104A80009093B90F8093B80F10920C108CEF809315
:104A9000B3030895E0910D1084E0E89FF001112424
:104AA000ED5CFD4F818180930D10D8CFCF93DF93C4
:104AB000BC0184E091E10E941E22EC010E942D22A3
:104AC0008C0F9D1FDF91CF9108951F93CF93DF939C
:104AD000EC01162F0E94943C181739F0612FCE017B
:104AE000DF91CF911F910C949C3CDF91CF911F914E
:104AF00008958F929F92AF92BF92CF92DF92EF92E2
:104B0000FF920F931F93CF93DF936C017B01142FC0
:104B1000922E4FEF5FEF6FEF7FE783E096E00E940A
:104B2000DE2301111092260FE60167015E018AE083
:104B3000A80EB11C7E01F70161917F01F601819100
:104B400091916F010E946525F7013197808188233B
:104B500039F0002329F08091260F8F5F8093260F74
:104B6000AE14BF0441F71093BA0F612F81E090E0BB
:104B70000E9465251092AE0F812CA12CC12CE12C36
:104B80000FEF1FEF2FEF3FE744EC59E060E0892D76
:104B90000E94D3220E940D1F10E0499150E070E066
:104BA00060E084E091E10E949D221930F1F08FE0F5
:104BB00096E00E94D9231F5F1A3079F7C0E0C93010
:104BC000B9F08FE096E00E94D923CF5FCA30B9F7E1
:104BD000DF91CF911F910F91FF90EF90DF90CF90D9
:104BE000BF90AF909F908F9008950E942D22E3CFA9
:104BF0000E942D22EACFCF93C82F682F80E190E04A
:104C00000E946525E6ECF2E084E291E0C8130DC055
:104C100090838F5F34968A32C9F781E090E0909359
:104C2000B90F8093B80FCF9108951082F2CF0C94F2
:104C3000943CCF92DF92EF92FF92CF93DF936B0180
:104C4000D42FC0E0CF5F6D2FC6010E946525C6013D
:104C50000E941726D81318C04FEF5FEF6FEF7FE762
:104C600082E196E00E94DE23CA3089F44FEF5FEFC5
:104C70006FEF7FE789E296E0DF91CF91FF90EF90B1
:104C8000DF90CF900C94DE23CA30E1F6EFCFDF91B6
:104C9000CF91FF90EF90DF90CF9008950F931F93E7
:104CA000CF93DF938093BA0F482F61E070E080E0EC
:104CB00090E00E9419263091BA0FEEECF3E045ED3A
:104CC00053E061E0219174E0279FC00111248D5CC5
:104CD0009D4FDC01231314C013966C934E175F078E
:104CE00089F7CAE0D0E003E112E060E0802F0E9483
:104CF000E6142197D1F7DF91CF911F910F9108957D
:104D000013961C92EBCF8093D90B482F50E070E0A4
:104D100060E088E496E00E94DE234091D90B4423B2
:104D200079F110925A03413079F110925E034230CA
:104D300071F11092620380EB94E0A0E0B0E04130AA
:104D400051F080ED97E0A0E0B0E0423021F48EEE2B
:104D500092E0A0E0B0E080930D0290930E02A09349
:104D60000F02B09310026CE270E080E090E00E94CD
:104D7000192681E090E09093B90F8093B80F0895C1
:104D800081E080935A03D1CF40935E03D2CF81E07C
:104D900080936203DCCF1F920F920FB60F92112403
:104DA0000BB60F922F933F934F935F936F937F9325
:104DB0008F939F93AF93BF93EF93FF9387E690E119
:104DC0000E94C513FF91EF91BF91AF919F918F9179
:104DD0007F916F915F914F913F912F910F900BBEFB
:104DE0000F900FBE0F901F9018951F920F920FB645
:104DF0000F9211240BB60F922F938F939F93EF93E3
:104E0000FF93E0917710F09178108081E0917D1010
:104E1000F0917E1082FD1DC09081809180108F5F87
:104E20008F7320918110821741F0E0918010F0E0A3
:104E3000E959FF4E958F80938010FF91EF919F91DC
:104E40008F912F910F900BBE0F900FBE0F901F9060
:104E500018958081F2CF1F920F920FB60F921124F6
:104E60000BB60F922F933F934F935F936F937F9364
:104E70008F939F93AF93BF93EF93FF9384E091E160
:104E80000E94C513FF91EF91BF91AF919F918F91B8
:104E90007F916F915F914F913F912F910F900BBE3A
:104EA0000F900FBE0F901F9018951F920F920FB684
:104EB0000F9211240BB60F922F938F939F93EF9322
:104EC000FF93E0911411F09115118081E0911A1176
:104ED000F0911B1182FD1DC0908180911D118F5F8B
:104EE0008F7320911E11821741F0E0911D11F0E0A7
:104EF000EC5FFE4E958F80931D11FF91EF919F9176
:104F00008F912F910F900BBE0F900FBE0F901F909F
:104F100018958081F2CF1F920F920FB60F92112435
:104F20002F933F938F939F93AF93BF938091D10B18
:104F30009091D20BA091D30BB091D40B3091D00BA8
:104F400023E0230F2D3758F50196A11DB11D2093A5
:104F5000D00B8093D10B9093D20BA093D30BB09333
:104F6000D40B8091D50B9091D60BA091D70BB0911B
:104F7000D80B0196A11DB11D8093D50B9093D60B34
:104F8000A093D70BB093D80BBF91AF919F918F9106
:104F90003F912F910F900FBE0F901F90189526E80C
:104FA000230F0296A11DB11DD2CF0E94A8156093B8
:104FB000CC0B7093CD0B8093CE0B9093CF0B89ECE1
:104FC00095E00E94332261E08EE10E94E614812C7C
:104FD000A12CC12CE12C0FEF1FEF2FEF3FE750E08A
:104FE00040E060E080E30E94D3228090CC0B909060
:104FF000CD0BA090CE0BB090CF0BC090070FD090F0
:10500000080F0D2C000CEE08FF08C80CD91CEA1C78
:10501000FB1C0E94A815C616D706E806F90648F438
:105020008091040F60E0811101C061E086E10E947F
:10503000E6148091090F90910A0F092E000CAA0B1B
:10504000BB0B6C017D01C80CD91CEA1CFB1C0E9427
:10505000A815C616D706E806F90638F68091050F9A
:1050600060E0811101C061E087E10E94E614BDCFDC
:10507000CF93DF9300D000D000D0CDB7DEB7109231
:105080006A101092691048EE53E060E070E04093BF
:105090006B1050936C1060936D1070936E1088E2DB
:1050A00095E090936810809367102DEC30E030937A
:1050B0007410209373102CEC30E030937610209312
:1050C000751028EC30E0309378102093771029EC9D
:1050D00030E030937A10209379102AEC30E030934E
:1050E0007C1020937B102EEC30E030937E102093C8
:1050F0007D101092801010928110109282101092E8
:1051000083101092071110920611409308115093CA
:10511000091160930A1170930B11909305118093FC
:10512000041185EC90E0909311118093101184ECA0
:1051300090E0909313118093121180EC90E0909383
:1051400015118093141181EC90E0909317118093C6
:10515000161182EC90E0909319118093181186EC4F
:1051600090E090931B1180931A1110921D111092D0
:105170001E1110921F111092201184EF91E0A0E0F7
:10518000B0E080931D1390931E13A0931F13B09350
:1051900020138AE0E4ECF3E0ABE2B3E101900D927E
:1051A0008A95E1F71092351382E0809336131092BE
:1051B0003B1310923C131092DC121092DB128AE324
:1051C00095E09093DA128093D912109214131092F2
:1051D0001513109216131092E2121092E11210920F
:1051E000E4121092E3121092E61281E08093E5122D
:1051F00082E28093E7121092EC121092EB12E0E040
:10520000F3E18EE093E12FEF21938E179F07E1F7F3
:1052100081E08093FD122FE032E13093F31220936E
:10522000F2128093F4121092F5121092F61280E4AA
:105230008093F7121092F8128EE092E190930F1380
:1052400080930E1384EB93E09093E0128093DF122F
:1052500010920B130E949F178AE395E09093DA1245
:105260008093D9126BE576E0CE0101960E949F21D2
:10527000AE014F5F5F4F64E08FEB92E10E94D0215F
:10528000CE0101960E94972160E676E0CE0101965C
:105290000E949F21AE014F5F5F4F6AE185EA92E174
:1052A0000E94D021CE0101960E94972166E676E009
:1052B000CE0101960E949F21AE014F5F5F4F61E3D7
:1052C00081EA91E10E94D021CE0101960E949721AE
:1052D0006AE676E0CE0101960E949F21AE014F5F03
:1052E0005F4F6FE28BEB91E10E94D021CE010196DE
:1052F0000E9497216EE676E0CE0101960E949F21E2
:10530000AE014F5F5F4F6DE285ED91E10E94D021CC
:10531000CE0101960E94972162E776E0CE010196C8
:105320000E949F21AE014F5F5F4F6BE28FEE91E1D4
:105330000E94D021CE0101960E94972166E776E077
:10534000CE0101960E949F21AE014F5F5F4F66E242
:1053500089E092E10E94D021CE0101960E9497211E
:105360006AE776E0CE0101960E949F21AE014F5F71
:105370005F4F68E283E292E10E94D021CE01019664
:105380000E9497216EE776E0CE0101960E949F2150
:10539000AE014F5F5F4F62E08DE392E10E94D0214A
:1053A000CE0101960E94972162E876E0CE01019637
:1053B0000E949F21AE014F5F5F4F67E087E592E15A
:1053C0000E94D021CE0101960E94972166E876E0E6
:1053D000CE0101960E949F21AE014F5F5F4F64E2B4
:1053E00081E792E10E94D021CE0101960E9497218F
:1053F0006AE876E0CE0101960E949F21AE014F5FE0
:105400005F4F62E28BE892E10E94D021CE010196CB
:105410000E94972126960FB6F894DEBF0FBECDBF2F
:10542000DF91CF910895CF93DF93CDB7DEB7299762
:105430000FB6F894DEBF0FBECDBF789484B58260FE
:1054400084BD84B5816084BD85B5826085BD85B528
:10545000816085BD80916E00816080936E001092A6
:105460008100809181008260809381008091810021
:1054700081608093810080918000816080938000B2
:105480008091B10084608093B1008091B000816010
:105490008093B00080919100826080939100809110
:1054A0009100816080939100809190008160809351
:1054B00090008091A10082608093A1008091A10062
:1054C00081608093A1008091A00081608093A00002
:1054D000809121018260809321018091210181606E
:1054E000809321018091200181608093200180912F
:1054F0007A00846080937A0080917A008260809341
:105500007A0080917A00816080937A0080917A009D
:10551000806880937A001092C10084E091E10E943B
:1055200011124FEF5FEF6FEF7FE78FE896E00E9479
:10553000DE230E94B11F4FEF5FEF6FEF7FE78EE931
:1055400096E00E94DE2381E090E09093B90F809373
:10555000B80F87E690E10E9411120E942D2284EC80
:1055600097E00E94332268EE73E080E090E00E94B2
:10557000751587E690E1909318138093171381E0D7
:1055800080932F1370E060E08CE00E94C5160E94AB
:10559000A8154B015C010E94B415811111C00E9435
:1055A000A815681979098A099B09613D7740810529
:1055B000910530F460E070E0CB010E947515EBCFEF
:1055C00068EC70E080E090E00E94751510923B134B
:1055D00080913713843009F4D5C1893009F4D2C1E0
:1055E00083EB97E00E94332282E997E00E94332206
:1055F00085E797E00E9433224BE35EE05A834983BC
:1056000024E630E090E080E0FC01EE0FFF1FE40FA5
:10561000F51FB901680F791F7183608301968A3085
:10562000910591F7265F3F4F4C5E5F4F283C310557
:1056300049F74AED5BE02CE231E090E080E0FC01CC
:10564000EE0FFF1FE40FF51FB901680F791F71837B
:10565000608301968A30910591F7265F3F4F4C5E3B
:105660005F4F283562E0360741F70DE31FE0A801E0
:105670002AE090E080E0FA01E80FF91F108201961D
:105680008A309105C1F72150465F5F4F2111F1CF5C
:10569000EBEBFFE08CE090E12FEF21938E179F075B
:1056A000E1F733E1C32E32E0D32E61E07DE1C7168E
:1056B00072E0D70609F07BC186E10E94141561E013
:1056C00087E10E94141561E08EE10E94141560E0EC
:1056D0008EE10E94E61421EAA22E21E1B22ED12C05
:1056E000C12C62E0F50180810E9414158091BA0FEF
:1056F000811111C0F601EE0FFF1FE958FC4F8081A8
:1057000091810E941726F601E156FC4F91E081112C
:1057100001C090E09083FFEFCF1ADF0A2AE1A20ECA
:10572000B11C3AE0C316D104E1F68EEF93E00E947B
:105730001726863149F01092080240E050E0BA0185
:105740008CEA96E00E94DE238FEF93E00E941726FA
:10575000863151F01092080241E050E060E070E0C4
:105760008CEA96E00E94DE234091080250E070E04F
:1057700060E086EC96E00E94DE23809108028111B1
:1057800022C14FEF5FEF6FEF7FE788E897E00E945D
:10579000DE2382E00E944E266EE18FE290E00E94BE
:1057A00065258EE180930A02E7E7CE2EE3E0DE2E48
:1057B000FFE98F2EF3E09F2E61E0D6018D919D9140
:1057C0006D010E946525BB24B394F401B1924F0191
:1057D000FBE8CF16F3E0DF0679F761E08CE090E0BC
:1057E0000E946525B092A20F60E080E190E00E94E7
:1057F000652560E081E190E00E9465251092040F2C
:1058000060E082E190E00E9465251092050F60E063
:1058100083E190E00E9465251092060F60E08EE122
:1058200090E00E9465251092080F1092070F60E02B
:105830008FE190E00E94652510920A0F1092090FE7
:1058400060E080E290E00E94652510920C0F1092BB
:105850000B0FD12CC12CF601EE0FFF1F29813A81CD
:10586000E20FF31F61E0808191810E946525F801BC
:10587000EC0DFD1D81E080833FEFC31AD30A4AE09F
:10588000C416D10441F769817A816C5E7F4F7A83B7
:105890006983065F1F4F63507F40D9F6ABE8B3E0E2
:1058A000BA83A98309EA13E06FE9C62E63E0D62E16
:1058B00061E0E981FA8181919191FA83E9830E9403
:1058C000652581E0D8018D938D01E981FA81CE169D
:1058D000DF0671F764E08DE090E00E94652584E0CA
:1058E00080930C0260E08EE090E00E9465251092AB
:1058F000B00F60E08BE290E00E9465251092AF0F40
:1059000062E08CE290E00E9465258091D90B0E94B4
:10591000832665E08DE290E00E94652585E0809316
:105920000B0280910802882309F44BC266E18EEFD6
:1059300093E00E9465258EEF93E00E941726482F82
:1059400050E070E060E08FE997E00E94DE2366E1BE
:105950008FEF93E00E9465258FEF93E00E9417265A
:10596000482F50E070E060E08FE997E00E94DE236E
:1059700081E0809308024FEF5FEF6FEF7FE783EBEB
:1059800097E091C189E597E00E94332261E070E0E1
:1059900089E00E94C51668EC70E080E090E00E940B
:1059A00075156EE170E086E00E94C51625CED60121
:1059B0008D916D010E941415F601319760E0808190
:1059C0000E94E61472CE81E090E00E9417260E94A9
:1059D0004E264091BA0F50E070E060E089ED96E00D
:1059E0000E94DE238FE290E00E94172680930A0235
:1059F000682F70E086E00E94C5168EE190E00E945C
:105A0000172690E09093080F8093070F8FE190E0A6
:105A10000E94172690E090930A0F8093090F80E26E
:105A200090E00E94172690E090930C0F80930B0F4C
:105A300081E190E00E9417268093040F82E190E0BC
:105A40000E9417268093050F83E190E00E9417269D
:105A50008093060F8FE090E00E941726D82E682FC3
:105A60008FE090E00E94652542E2D41649F0109242
:105A7000BE0253E2D51207C081E08093C20205C086
:105A800081E08093BE021092C20281E090E0909388
:105A9000B90F8093B80F80E190E00E9417260E9412
:105AA000FB258CE090E00E9417268093A20F482FE0
:105AB00050E070E060E086EE96E00E94DE2383E036
:105AC000A82E8FE0B82ED12CC12CF601EE0FFF1FAF
:105AD00069817A81E60FF71F808191810E941726E4
